{
	"contracts/FamilyFund.sol": {
		"FamilyFund": {
			"abi": [
				{
					"inputs": [
						{
							"internalType": "uint8",
							"name": "_membersCount",
							"type": "uint8"
						},
						{
							"internalType": "uint256",
							"name": "_share",
							"type": "uint256"
						}
					],
					"stateMutability": "nonpayable",
					"type": "constructor"
				},
				{
					"inputs": [
						{
							"internalType": "address payable",
							"name": "_newMember",
							"type": "address"
						}
					],
					"name": "addMember",
					"outputs": [],
					"stateMutability": "nonpayable",
					"type": "function"
				},
				{
					"inputs": [],
					"name": "chooseWinner",
					"outputs": [],
					"stateMutability": "nonpayable",
					"type": "function"
				},
				{
					"inputs": [],
					"name": "payShare",
					"outputs": [],
					"stateMutability": "payable",
					"type": "function"
				}
			],
			"devdoc": {
				"kind": "dev",
				"methods": {},
				"version": 1
			},
			"evm": {
				"assembly": "    /* \"contracts/FamilyFund.sol\":85:3139  contract FamilyFund {... */\n  mstore(0x40, 0x80)\n    /* \"contracts/FamilyFund.sol\":504:761  constructor(uint8 _membersCount, uint _share) {... */\n  callvalue\n  dup1\n  iszero\n  tag_1\n  jumpi\n  0x00\n  dup1\n  revert\ntag_1:\n  pop\n  mload(0x40)\n  sub(codesize, bytecodeSize)\n  dup1\n  bytecodeSize\n  dup4\n  codecopy\n  dup2\n  dup2\n  add\n  0x40\n  mstore\n  dup2\n  add\n  swap1\n  tag_2\n  swap2\n  swap1\n  tag_3\n  jump\t// in\ntag_2:\n    /* \"contracts/FamilyFund.sol\":582:583  1 */\n  0x01\n    /* \"contracts/FamilyFund.sol\":568:581  _membersCount */\n  dup3\n    /* \"contracts/FamilyFund.sol\":568:583  _membersCount>1 */\n  0xff\n  and\n  gt\n    /* \"contracts/FamilyFund.sol\":560:616  require(_membersCount>1, \"Fund must at least 2 member!\") */\n  tag_6\n  jumpi\n  mload(0x40)\n  0x08c379a000000000000000000000000000000000000000000000000000000000\n  dup2\n  mstore\n  0x04\n  add\n  tag_7\n  swap1\n  tag_8\n  jump\t// in\ntag_7:\n  mload(0x40)\n  dup1\n  swap2\n  sub\n  swap1\n  revert\ntag_6:\n    /* \"contracts/FamilyFund.sol\":641:654  _membersCount */\n  dup2\n    /* \"contracts/FamilyFund.sol\":626:638  membersCount */\n  0x01\n  dup1\n    /* \"contracts/FamilyFund.sol\":626:654  membersCount = _membersCount */\n  0x0100\n  exp\n  dup2\n  sload\n  dup2\n  0xff\n  mul\n  not\n  and\n  swap1\n  dup4\n  0xff\n  and\n  mul\n  or\n  swap1\n  sstore\n  pop\n    /* \"contracts/FamilyFund.sol\":672:678  _share */\n  dup1\n    /* \"contracts/FamilyFund.sol\":664:669  share */\n  0x00\n    /* \"contracts/FamilyFund.sol\":664:678  share = _share */\n  dup2\n  swap1\n  sstore\n  pop\n    /* \"contracts/FamilyFund.sol\":696:706  msg.sender */\n  caller\n    /* \"contracts/FamilyFund.sol\":688:693  owner */\n  0x01\n  0x03\n    /* \"contracts/FamilyFund.sol\":688:706  owner = msg.sender */\n  0x0100\n  exp\n  dup2\n  sload\n  dup2\n  0xffffffffffffffffffffffffffffffffffffffff\n  mul\n  not\n  and\n  swap1\n  dup4\n  0xffffffffffffffffffffffffffffffffffffffff\n  and\n  mul\n  or\n  swap1\n  sstore\n  pop\n    /* \"contracts/FamilyFund.sol\":731:735  true */\n  0x01\n    /* \"contracts/FamilyFund.sol\":716:728  isFundActive */\n  dup1\n  0x02\n    /* \"contracts/FamilyFund.sol\":716:735  isFundActive = true */\n  0x0100\n  exp\n  dup2\n  sload\n  dup2\n  0xff\n  mul\n  not\n  and\n  swap1\n  dup4\n  iszero\n  iszero\n  mul\n  or\n  swap1\n  sstore\n  pop\n    /* \"contracts/FamilyFund.sol\":753:754  1 */\n  0x01\n    /* \"contracts/FamilyFund.sol\":745:750  round */\n  dup1\n  0x00\n    /* \"contracts/FamilyFund.sol\":745:754  round = 1 */\n  0x0100\n  exp\n  dup2\n  sload\n  dup2\n  0xff\n  mul\n  not\n  and\n  swap1\n  dup4\n  0xff\n  and\n  mul\n  or\n  swap1\n  sstore\n  pop\n    /* \"contracts/FamilyFund.sol\":504:761  constructor(uint8 _membersCount, uint _share) {... */\n  pop\n  pop\n    /* \"contracts/FamilyFund.sol\":85:3139  contract FamilyFund {... */\n  jump(tag_9)\n    /* \"#utility.yul\":88:205   */\ntag_11:\n    /* \"#utility.yul\":197:198   */\n  0x00\n    /* \"#utility.yul\":194:195   */\n  dup1\n    /* \"#utility.yul\":187:199   */\n  revert\n    /* \"#utility.yul\":334:420   */\ntag_13:\n    /* \"#utility.yul\":369:376   */\n  0x00\n    /* \"#utility.yul\":409:413   */\n  0xff\n    /* \"#utility.yul\":402:407   */\n  dup3\n    /* \"#utility.yul\":398:414   */\n  and\n    /* \"#utility.yul\":387:414   */\n  swap1\n  pop\n    /* \"#utility.yul\":334:420   */\n  swap2\n  swap1\n  pop\n  jump\t// out\n    /* \"#utility.yul\":426:544   */\ntag_14:\n    /* \"#utility.yul\":497:519   */\n  tag_28\n    /* \"#utility.yul\":513:518   */\n  dup2\n    /* \"#utility.yul\":497:519   */\n  tag_13\n  jump\t// in\ntag_28:\n    /* \"#utility.yul\":490:495   */\n  dup2\n    /* \"#utility.yul\":487:520   */\n  eq\n    /* \"#utility.yul\":477:538   */\n  tag_29\n  jumpi\n    /* \"#utility.yul\":534:535   */\n  0x00\n    /* \"#utility.yul\":531:532   */\n  dup1\n    /* \"#utility.yul\":524:536   */\n  revert\n    /* \"#utility.yul\":477:538   */\ntag_29:\n    /* \"#utility.yul\":426:544   */\n  pop\n  jump\t// out\n    /* \"#utility.yul\":550:689   */\ntag_15:\n    /* \"#utility.yul\":605:610   */\n  0x00\n    /* \"#utility.yul\":636:642   */\n  dup2\n    /* \"#utility.yul\":630:643   */\n  mload\n    /* \"#utility.yul\":621:643   */\n  swap1\n  pop\n    /* \"#utility.yul\":652:683   */\n  tag_31\n    /* \"#utility.yul\":677:682   */\n  dup2\n    /* \"#utility.yul\":652:683   */\n  tag_14\n  jump\t// in\ntag_31:\n    /* \"#utility.yul\":550:689   */\n  swap3\n  swap2\n  pop\n  pop\n  jump\t// out\n    /* \"#utility.yul\":695:772   */\ntag_16:\n    /* \"#utility.yul\":732:739   */\n  0x00\n    /* \"#utility.yul\":761:766   */\n  dup2\n    /* \"#utility.yul\":750:766   */\n  swap1\n  pop\n    /* \"#utility.yul\":695:772   */\n  swap2\n  swap1\n  pop\n  jump\t// out\n    /* \"#utility.yul\":778:900   */\ntag_17:\n    /* \"#utility.yul\":851:875   */\n  tag_34\n    /* \"#utility.yul\":869:874   */\n  dup2\n    /* \"#utility.yul\":851:875   */\n  tag_16\n  jump\t// in\ntag_34:\n    /* \"#utility.yul\":844:849   */\n  dup2\n    /* \"#utility.yul\":841:876   */\n  eq\n    /* \"#utility.yul\":831:894   */\n  tag_35\n  jumpi\n    /* \"#utility.yul\":890:891   */\n  0x00\n    /* \"#utility.yul\":887:888   */\n  dup1\n    /* \"#utility.yul\":880:892   */\n  revert\n    /* \"#utility.yul\":831:894   */\ntag_35:\n    /* \"#utility.yul\":778:900   */\n  pop\n  jump\t// out\n    /* \"#utility.yul\":906:1049   */\ntag_18:\n    /* \"#utility.yul\":963:968   */\n  0x00\n    /* \"#utility.yul\":994:1000   */\n  dup2\n    /* \"#utility.yul\":988:1001   */\n  mload\n    /* \"#utility.yul\":979:1001   */\n  swap1\n  pop\n    /* \"#utility.yul\":1010:1043   */\n  tag_37\n    /* \"#utility.yul\":1037:1042   */\n  dup2\n    /* \"#utility.yul\":1010:1043   */\n  tag_17\n  jump\t// in\ntag_37:\n    /* \"#utility.yul\":906:1049   */\n  swap3\n  swap2\n  pop\n  pop\n  jump\t// out\n    /* \"#utility.yul\":1055:1558   */\ntag_3:\n    /* \"#utility.yul\":1132:1138   */\n  0x00\n    /* \"#utility.yul\":1140:1146   */\n  dup1\n    /* \"#utility.yul\":1189:1191   */\n  0x40\n    /* \"#utility.yul\":1177:1186   */\n  dup4\n    /* \"#utility.yul\":1168:1175   */\n  dup6\n    /* \"#utility.yul\":1164:1187   */\n  sub\n    /* \"#utility.yul\":1160:1192   */\n  slt\n    /* \"#utility.yul\":1157:1276   */\n  iszero\n  tag_39\n  jumpi\n    /* \"#utility.yul\":1195:1274   */\n  tag_40\n  tag_11\n  jump\t// in\ntag_40:\n    /* \"#utility.yul\":1157:1276   */\ntag_39:\n    /* \"#utility.yul\":1315:1316   */\n  0x00\n    /* \"#utility.yul\":1340:1402   */\n  tag_41\n    /* \"#utility.yul\":1394:1401   */\n  dup6\n    /* \"#utility.yul\":1385:1391   */\n  dup3\n    /* \"#utility.yul\":1374:1383   */\n  dup7\n    /* \"#utility.yul\":1370:1392   */\n  add\n    /* \"#utility.yul\":1340:1402   */\n  tag_15\n  jump\t// in\ntag_41:\n    /* \"#utility.yul\":1330:1402   */\n  swap3\n  pop\n    /* \"#utility.yul\":1286:1412   */\n  pop\n    /* \"#utility.yul\":1451:1453   */\n  0x20\n    /* \"#utility.yul\":1477:1541   */\n  tag_42\n    /* \"#utility.yul\":1533:1540   */\n  dup6\n    /* \"#utility.yul\":1524:1530   */\n  dup3\n    /* \"#utility.yul\":1513:1522   */\n  dup7\n    /* \"#utility.yul\":1509:1531   */\n  add\n    /* \"#utility.yul\":1477:1541   */\n  tag_18\n  jump\t// in\ntag_42:\n    /* \"#utility.yul\":1467:1541   */\n  swap2\n  pop\n    /* \"#utility.yul\":1422:1551   */\n  pop\n    /* \"#utility.yul\":1055:1558   */\n  swap3\n  pop\n  swap3\n  swap1\n  pop\n  jump\t// out\n    /* \"#utility.yul\":1564:1733   */\ntag_19:\n    /* \"#utility.yul\":1648:1659   */\n  0x00\n    /* \"#utility.yul\":1682:1688   */\n  dup3\n    /* \"#utility.yul\":1677:1680   */\n  dup3\n    /* \"#utility.yul\":1670:1689   */\n  mstore\n    /* \"#utility.yul\":1722:1726   */\n  0x20\n    /* \"#utility.yul\":1717:1720   */\n  dup3\n    /* \"#utility.yul\":1713:1727   */\n  add\n    /* \"#utility.yul\":1698:1727   */\n  swap1\n  pop\n    /* \"#utility.yul\":1564:1733   */\n  swap3\n  swap2\n  pop\n  pop\n  jump\t// out\n    /* \"#utility.yul\":1739:1917   */\ntag_20:\n    /* \"#utility.yul\":1879:1909   */\n  0x46756e64206d757374206174206c656173742032206d656d6265722100000000\n    /* \"#utility.yul\":1875:1876   */\n  0x00\n    /* \"#utility.yul\":1867:1873   */\n  dup3\n    /* \"#utility.yul\":1863:1877   */\n  add\n    /* \"#utility.yul\":1856:1910   */\n  mstore\n    /* \"#utility.yul\":1739:1917   */\n  pop\n  jump\t// out\n    /* \"#utility.yul\":1923:2289   */\ntag_21:\n    /* \"#utility.yul\":2065:2068   */\n  0x00\n    /* \"#utility.yul\":2086:2153   */\n  tag_46\n    /* \"#utility.yul\":2150:2152   */\n  0x1c\n    /* \"#utility.yul\":2145:2148   */\n  dup4\n    /* \"#utility.yul\":2086:2153   */\n  tag_19\n  jump\t// in\ntag_46:\n    /* \"#utility.yul\":2079:2153   */\n  swap2\n  pop\n    /* \"#utility.yul\":2162:2255   */\n  tag_47\n    /* \"#utility.yul\":2251:2254   */\n  dup3\n    /* \"#utility.yul\":2162:2255   */\n  tag_20\n  jump\t// in\ntag_47:\n    /* \"#utility.yul\":2280:2282   */\n  0x20\n    /* \"#utility.yul\":2275:2278   */\n  dup3\n    /* \"#utility.yul\":2271:2283   */\n  add\n    /* \"#utility.yul\":2264:2283   */\n  swap1\n  pop\n    /* \"#utility.yul\":1923:2289   */\n  swap2\n  swap1\n  pop\n  jump\t// out\n    /* \"#utility.yul\":2295:2714   */\ntag_8:\n    /* \"#utility.yul\":2461:2465   */\n  0x00\n    /* \"#utility.yul\":2499:2501   */\n  0x20\n    /* \"#utility.yul\":2488:2497   */\n  dup3\n    /* \"#utility.yul\":2484:2502   */\n  add\n    /* \"#utility.yul\":2476:2502   */\n  swap1\n  pop\n    /* \"#utility.yul\":2548:2557   */\n  dup2\n    /* \"#utility.yul\":2542:2546   */\n  dup2\n    /* \"#utility.yul\":2538:2558   */\n  sub\n    /* \"#utility.yul\":2534:2535   */\n  0x00\n    /* \"#utility.yul\":2523:2532   */\n  dup4\n    /* \"#utility.yul\":2519:2536   */\n  add\n    /* \"#utility.yul\":2512:2559   */\n  mstore\n    /* \"#utility.yul\":2576:2707   */\n  tag_49\n    /* \"#utility.yul\":2702:2706   */\n  dup2\n    /* \"#utility.yul\":2576:2707   */\n  tag_21\n  jump\t// in\ntag_49:\n    /* \"#utility.yul\":2568:2707   */\n  swap1\n  pop\n    /* \"#utility.yul\":2295:2714   */\n  swap2\n  swap1\n  pop\n  jump\t// out\n    /* \"contracts/FamilyFund.sol\":85:3139  contract FamilyFund {... */\ntag_9:\n  dataSize(sub_0)\n  dup1\n  dataOffset(sub_0)\n  0x00\n  codecopy\n  0x00\n  return\nstop\n\nsub_0: assembly {\n        /* \"contracts/FamilyFund.sol\":85:3139  contract FamilyFund {... */\n      mstore(0x40, 0x80)\n      jumpi(tag_1, lt(calldatasize, 0x04))\n      shr(0xe0, calldataload(0x00))\n      dup1\n      0x99c571e7\n      eq\n      tag_2\n      jumpi\n      dup1\n      0xca6d56dc\n      eq\n      tag_3\n      jumpi\n      dup1\n      0xcd38aa87\n      eq\n      tag_4\n      jumpi\n    tag_1:\n      0x00\n      dup1\n      revert\n        /* \"contracts/FamilyFund.sol\":1071:1422  function payShare() payable public {... */\n    tag_2:\n      tag_5\n      tag_6\n      jump\t// in\n    tag_5:\n      stop\n        /* \"contracts/FamilyFund.sol\":767:1065  function addMember(address payable _newMember) public OwnerOnly {... */\n    tag_3:\n      callvalue\n      dup1\n      iszero\n      tag_7\n      jumpi\n      0x00\n      dup1\n      revert\n    tag_7:\n      pop\n      tag_8\n      0x04\n      dup1\n      calldatasize\n      sub\n      dup2\n      add\n      swap1\n      tag_9\n      swap2\n      swap1\n      tag_10\n      jump\t// in\n    tag_9:\n      tag_11\n      jump\t// in\n    tag_8:\n      stop\n        /* \"contracts/FamilyFund.sol\":1428:2260  function chooseWinner() public OwnerOnly {... */\n    tag_4:\n      callvalue\n      dup1\n      iszero\n      tag_12\n      jumpi\n      0x00\n      dup1\n      revert\n    tag_12:\n      pop\n      tag_13\n      tag_14\n      jump\t// in\n    tag_13:\n      stop\n        /* \"contracts/FamilyFund.sol\":1071:1422  function payShare() payable public {... */\n    tag_6:\n        /* \"contracts/FamilyFund.sol\":1150:1154  true */\n      0x01\n        /* \"contracts/FamilyFund.sol\":1124:1154  findMember(msg.sender) == true */\n      iszero\n      iszero\n        /* \"contracts/FamilyFund.sol\":1124:1146  findMember(msg.sender) */\n      tag_16\n        /* \"contracts/FamilyFund.sol\":1135:1145  msg.sender */\n      caller\n        /* \"contracts/FamilyFund.sol\":1124:1134  findMember */\n      tag_17\n        /* \"contracts/FamilyFund.sol\":1124:1146  findMember(msg.sender) */\n      jump\t// in\n    tag_16:\n        /* \"contracts/FamilyFund.sol\":1124:1154  findMember(msg.sender) == true */\n      iszero\n      iszero\n      eq\n        /* \"contracts/FamilyFund.sol\":1116:1172  require(findMember(msg.sender) == true, \"Not a member!\") */\n      tag_18\n      jumpi\n      mload(0x40)\n      0x08c379a000000000000000000000000000000000000000000000000000000000\n      dup2\n      mstore\n      0x04\n      add\n      tag_19\n      swap1\n      tag_20\n      jump\t// in\n    tag_19:\n      mload(0x40)\n      dup1\n      swap2\n      sub\n      swap1\n      revert\n    tag_18:\n        /* \"contracts/FamilyFund.sol\":1240:1245  false */\n      0x00\n        /* \"contracts/FamilyFund.sol\":1203:1245  paidShares[msg.sender][round - 1] == false */\n      iszero\n      iszero\n        /* \"contracts/FamilyFund.sol\":1203:1213  paidShares */\n      0x04\n        /* \"contracts/FamilyFund.sol\":1203:1225  paidShares[msg.sender] */\n      0x00\n        /* \"contracts/FamilyFund.sol\":1214:1224  msg.sender */\n      caller\n        /* \"contracts/FamilyFund.sol\":1203:1225  paidShares[msg.sender] */\n      0xffffffffffffffffffffffffffffffffffffffff\n      and\n      0xffffffffffffffffffffffffffffffffffffffff\n      and\n      dup2\n      mstore\n      0x20\n      add\n      swap1\n      dup2\n      mstore\n      0x20\n      add\n      0x00\n      keccak256\n        /* \"contracts/FamilyFund.sol\":1203:1236  paidShares[msg.sender][round - 1] */\n      0x00\n        /* \"contracts/FamilyFund.sol\":1234:1235  1 */\n      0x01\n        /* \"contracts/FamilyFund.sol\":1226:1231  round */\n      dup1\n      0x00\n      swap1\n      sload\n      swap1\n      0x0100\n      exp\n      swap1\n      div\n      0xff\n      and\n        /* \"contracts/FamilyFund.sol\":1226:1235  round - 1 */\n      tag_21\n      swap2\n      swap1\n      tag_22\n      jump\t// in\n    tag_21:\n        /* \"contracts/FamilyFund.sol\":1203:1236  paidShares[msg.sender][round - 1] */\n      0xff\n      and\n      0xff\n      and\n      dup2\n      mstore\n      0x20\n      add\n      swap1\n      dup2\n      mstore\n      0x20\n      add\n      0x00\n      keccak256\n      0x00\n      swap1\n      sload\n      swap1\n      0x0100\n      exp\n      swap1\n      div\n      0xff\n      and\n        /* \"contracts/FamilyFund.sol\":1203:1245  paidShares[msg.sender][round - 1] == false */\n      iszero\n      iszero\n      eq\n        /* \"contracts/FamilyFund.sol\":1182:1297  require(... */\n      tag_23\n      jumpi\n      mload(0x40)\n      0x08c379a000000000000000000000000000000000000000000000000000000000\n      dup2\n      mstore\n      0x04\n      add\n      tag_24\n      swap1\n      tag_25\n      jump\t// in\n    tag_24:\n      mload(0x40)\n      dup1\n      swap2\n      sub\n      swap1\n      revert\n    tag_23:\n        /* \"contracts/FamilyFund.sol\":1328:1333  share */\n      sload(0x00)\n        /* \"contracts/FamilyFund.sol\":1315:1324  msg.value */\n      callvalue\n        /* \"contracts/FamilyFund.sol\":1315:1333  msg.value == share */\n      eq\n        /* \"contracts/FamilyFund.sol\":1307:1365  require(msg.value == share, \"Payment value is not valid!\") */\n      tag_26\n      jumpi\n      mload(0x40)\n      0x08c379a000000000000000000000000000000000000000000000000000000000\n      dup2\n      mstore\n      0x04\n      add\n      tag_27\n      swap1\n      tag_28\n      jump\t// in\n    tag_27:\n      mload(0x40)\n      dup1\n      swap2\n      sub\n      swap1\n      revert\n    tag_26:\n        /* \"contracts/FamilyFund.sol\":1411:1415  true */\n      0x01\n        /* \"contracts/FamilyFund.sol\":1375:1385  paidShares */\n      0x04\n        /* \"contracts/FamilyFund.sol\":1375:1397  paidShares[msg.sender] */\n      0x00\n        /* \"contracts/FamilyFund.sol\":1386:1396  msg.sender */\n      caller\n        /* \"contracts/FamilyFund.sol\":1375:1397  paidShares[msg.sender] */\n      0xffffffffffffffffffffffffffffffffffffffff\n      and\n      0xffffffffffffffffffffffffffffffffffffffff\n      and\n      dup2\n      mstore\n      0x20\n      add\n      swap1\n      dup2\n      mstore\n      0x20\n      add\n      0x00\n      keccak256\n        /* \"contracts/FamilyFund.sol\":1375:1408  paidShares[msg.sender][round - 1] */\n      0x00\n        /* \"contracts/FamilyFund.sol\":1406:1407  1 */\n      0x01\n        /* \"contracts/FamilyFund.sol\":1398:1403  round */\n      dup1\n      0x00\n      swap1\n      sload\n      swap1\n      0x0100\n      exp\n      swap1\n      div\n      0xff\n      and\n        /* \"contracts/FamilyFund.sol\":1398:1407  round - 1 */\n      tag_29\n      swap2\n      swap1\n      tag_22\n      jump\t// in\n    tag_29:\n        /* \"contracts/FamilyFund.sol\":1375:1408  paidShares[msg.sender][round - 1] */\n      0xff\n      and\n      0xff\n      and\n      dup2\n      mstore\n      0x20\n      add\n      swap1\n      dup2\n      mstore\n      0x20\n      add\n      0x00\n      keccak256\n      0x00\n        /* \"contracts/FamilyFund.sol\":1375:1415  paidShares[msg.sender][round - 1] = true */\n      0x0100\n      exp\n      dup2\n      sload\n      dup2\n      0xff\n      mul\n      not\n      and\n      swap1\n      dup4\n      iszero\n      iszero\n      mul\n      or\n      swap1\n      sstore\n      pop\n        /* \"contracts/FamilyFund.sol\":1071:1422  function payShare() payable public {... */\n      jump\t// out\n        /* \"contracts/FamilyFund.sol\":767:1065  function addMember(address payable _newMember) public OwnerOnly {... */\n    tag_11:\n        /* \"contracts/FamilyFund.sol\":2319:2324  owner */\n      0x01\n      0x03\n      swap1\n      sload\n      swap1\n      0x0100\n      exp\n      swap1\n      div\n      0xffffffffffffffffffffffffffffffffffffffff\n      and\n        /* \"contracts/FamilyFund.sol\":2305:2324  msg.sender == owner */\n      0xffffffffffffffffffffffffffffffffffffffff\n      and\n        /* \"contracts/FamilyFund.sol\":2305:2315  msg.sender */\n      caller\n        /* \"contracts/FamilyFund.sol\":2305:2324  msg.sender == owner */\n      0xffffffffffffffffffffffffffffffffffffffff\n      and\n      eq\n        /* \"contracts/FamilyFund.sol\":2297:2350  require(msg.sender == owner, \"Sender not authorized\") */\n      tag_31\n      jumpi\n      mload(0x40)\n      0x08c379a000000000000000000000000000000000000000000000000000000000\n      dup2\n      mstore\n      0x04\n      add\n      tag_32\n      swap1\n      tag_33\n      jump\t// in\n    tag_32:\n      mload(0x40)\n      dup1\n      swap2\n      sub\n      swap1\n      revert\n    tag_31:\n        /* \"contracts/FamilyFund.sol\":865:869  true */\n      0x01\n        /* \"contracts/FamilyFund.sol\":849:869  isFundActive == true */\n      iszero\n      iszero\n        /* \"contracts/FamilyFund.sol\":849:861  isFundActive */\n      0x01\n      0x02\n      swap1\n      sload\n      swap1\n      0x0100\n      exp\n      swap1\n      div\n      0xff\n      and\n        /* \"contracts/FamilyFund.sol\":849:869  isFundActive == true */\n      iszero\n      iszero\n      eq\n        /* \"contracts/FamilyFund.sol\":841:889  require(isFundActive == true, \"Fund is closed!\") */\n      tag_35\n      jumpi\n      mload(0x40)\n      0x08c379a000000000000000000000000000000000000000000000000000000000\n      dup2\n      mstore\n      0x04\n      add\n      tag_36\n      swap1\n      tag_37\n      jump\t// in\n    tag_36:\n      mload(0x40)\n      dup1\n      swap2\n      sub\n      swap1\n      revert\n    tag_35:\n        /* \"contracts/FamilyFund.sol\":933:938  false */\n      0x00\n        /* \"contracts/FamilyFund.sol\":907:938  findMember(_newMember) == false */\n      iszero\n      iszero\n        /* \"contracts/FamilyFund.sol\":907:929  findMember(_newMember) */\n      tag_38\n        /* \"contracts/FamilyFund.sol\":918:928  _newMember */\n      dup3\n        /* \"contracts/FamilyFund.sol\":907:917  findMember */\n      tag_17\n        /* \"contracts/FamilyFund.sol\":907:929  findMember(_newMember) */\n      jump\t// in\n    tag_38:\n        /* \"contracts/FamilyFund.sol\":907:938  findMember(_newMember) == false */\n      iszero\n      iszero\n      eq\n        /* \"contracts/FamilyFund.sol\":899:957  require(findMember(_newMember) == false, \"Already added!\") */\n      tag_39\n      jumpi\n      mload(0x40)\n      0x08c379a000000000000000000000000000000000000000000000000000000000\n      dup2\n      mstore\n      0x04\n      add\n      tag_40\n      swap1\n      tag_41\n      jump\t// in\n    tag_40:\n      mload(0x40)\n      dup1\n      swap2\n      sub\n      swap1\n      revert\n    tag_39:\n        /* \"contracts/FamilyFund.sol\":992:1004  membersCount */\n      0x01\n      dup1\n      sload\n      swap1\n      0x0100\n      exp\n      swap1\n      div\n      0xff\n      and\n        /* \"contracts/FamilyFund.sol\":975:1004  members.length < membersCount */\n      0xff\n      and\n        /* \"contracts/FamilyFund.sol\":975:982  members */\n      0x02\n        /* \"contracts/FamilyFund.sol\":975:989  members.length */\n      dup1\n      sload\n      swap1\n      pop\n        /* \"contracts/FamilyFund.sol\":975:1004  members.length < membersCount */\n      lt\n        /* \"contracts/FamilyFund.sol\":967:1024  require(members.length < membersCount, \"No empty space!\") */\n      tag_42\n      jumpi\n      mload(0x40)\n      0x08c379a000000000000000000000000000000000000000000000000000000000\n      dup2\n      mstore\n      0x04\n      add\n      tag_43\n      swap1\n      tag_44\n      jump\t// in\n    tag_43:\n      mload(0x40)\n      dup1\n      swap2\n      sub\n      swap1\n      revert\n    tag_42:\n        /* \"contracts/FamilyFund.sol\":1034:1041  members */\n      0x02\n        /* \"contracts/FamilyFund.sol\":1047:1057  _newMember */\n      dup2\n        /* \"contracts/FamilyFund.sol\":1034:1058  members.push(_newMember) */\n      swap1\n      dup1\n      0x01\n      dup2\n      sload\n      add\n      dup1\n      dup3\n      sstore\n      dup1\n      swap2\n      pop\n      pop\n      0x01\n      swap1\n      sub\n      swap1\n      0x00\n      mstore\n      keccak256(0x00, 0x20)\n      add\n      0x00\n      swap1\n      swap2\n      swap1\n      swap2\n      swap1\n      swap2\n      0x0100\n      exp\n      dup2\n      sload\n      dup2\n      0xffffffffffffffffffffffffffffffffffffffff\n      mul\n      not\n      and\n      swap1\n      dup4\n      0xffffffffffffffffffffffffffffffffffffffff\n      and\n      mul\n      or\n      swap1\n      sstore\n      pop\n        /* \"contracts/FamilyFund.sol\":767:1065  function addMember(address payable _newMember) public OwnerOnly {... */\n      pop\n      jump\t// out\n        /* \"contracts/FamilyFund.sol\":1428:2260  function chooseWinner() public OwnerOnly {... */\n    tag_14:\n        /* \"contracts/FamilyFund.sol\":2319:2324  owner */\n      0x01\n      0x03\n      swap1\n      sload\n      swap1\n      0x0100\n      exp\n      swap1\n      div\n      0xffffffffffffffffffffffffffffffffffffffff\n      and\n        /* \"contracts/FamilyFund.sol\":2305:2324  msg.sender == owner */\n      0xffffffffffffffffffffffffffffffffffffffff\n      and\n        /* \"contracts/FamilyFund.sol\":2305:2315  msg.sender */\n      caller\n        /* \"contracts/FamilyFund.sol\":2305:2324  msg.sender == owner */\n      0xffffffffffffffffffffffffffffffffffffffff\n      and\n      eq\n        /* \"contracts/FamilyFund.sol\":2297:2350  require(msg.sender == owner, \"Sender not authorized\") */\n      tag_47\n      jumpi\n      mload(0x40)\n      0x08c379a000000000000000000000000000000000000000000000000000000000\n      dup2\n      mstore\n      0x04\n      add\n      tag_48\n      swap1\n      tag_33\n      jump\t// in\n    tag_48:\n      mload(0x40)\n      dup1\n      swap2\n      sub\n      swap1\n      revert\n    tag_47:\n        /* \"contracts/FamilyFund.sol\":1503:1507  true */\n      0x01\n        /* \"contracts/FamilyFund.sol\":1487:1507  isFundActive == true */\n      iszero\n      iszero\n        /* \"contracts/FamilyFund.sol\":1487:1499  isFundActive */\n      0x01\n      0x02\n      swap1\n      sload\n      swap1\n      0x0100\n      exp\n      swap1\n      div\n      0xff\n      and\n        /* \"contracts/FamilyFund.sol\":1487:1507  isFundActive == true */\n      iszero\n      iszero\n      eq\n        /* \"contracts/FamilyFund.sol\":1479:1527  require(isFundActive == true, \"Fund is closed!\") */\n      tag_50\n      jumpi\n      mload(0x40)\n      0x08c379a000000000000000000000000000000000000000000000000000000000\n      dup2\n      mstore\n      0x04\n      add\n      tag_51\n      swap1\n      tag_37\n      jump\t// in\n    tag_51:\n      mload(0x40)\n      dup1\n      swap2\n      sub\n      swap1\n      revert\n    tag_50:\n        /* \"contracts/FamilyFund.sol\":1563:1575  membersCount */\n      0x01\n      dup1\n      sload\n      swap1\n      0x0100\n      exp\n      swap1\n      div\n      0xff\n      and\n        /* \"contracts/FamilyFund.sol\":1545:1575  members.length == membersCount */\n      0xff\n      and\n        /* \"contracts/FamilyFund.sol\":1545:1552  members */\n      0x02\n        /* \"contracts/FamilyFund.sol\":1545:1559  members.length */\n      dup1\n      sload\n      swap1\n      pop\n        /* \"contracts/FamilyFund.sol\":1545:1575  members.length == membersCount */\n      eq\n        /* \"contracts/FamilyFund.sol\":1537:1607  require(members.length == membersCount, \"Some members not added yet!\") */\n      tag_52\n      jumpi\n      mload(0x40)\n      0x08c379a000000000000000000000000000000000000000000000000000000000\n      dup2\n      mstore\n      0x04\n      add\n      tag_53\n      swap1\n      tag_54\n      jump\t// in\n    tag_53:\n      mload(0x40)\n      dup1\n      swap2\n      sub\n      swap1\n      revert\n    tag_52:\n        /* \"contracts/FamilyFund.sol\":1647:1651  true */\n      0x01\n        /* \"contracts/FamilyFund.sol\":1625:1651  isAllPaidInRound() == true */\n      iszero\n      iszero\n        /* \"contracts/FamilyFund.sol\":1625:1643  isAllPaidInRound() */\n      tag_55\n        /* \"contracts/FamilyFund.sol\":1625:1641  isAllPaidInRound */\n      tag_56\n        /* \"contracts/FamilyFund.sol\":1625:1643  isAllPaidInRound() */\n      jump\t// in\n    tag_55:\n        /* \"contracts/FamilyFund.sol\":1625:1651  isAllPaidInRound() == true */\n      iszero\n      iszero\n      eq\n        /* \"contracts/FamilyFund.sol\":1617:1687  require(isAllPaidInRound() == true, \"All members must paid in round!\") */\n      tag_57\n      jumpi\n      mload(0x40)\n      0x08c379a000000000000000000000000000000000000000000000000000000000\n      dup2\n      mstore\n      0x04\n      add\n      tag_58\n      swap1\n      tag_59\n      jump\t// in\n    tag_58:\n      mload(0x40)\n      dup1\n      swap2\n      sub\n      swap1\n      revert\n    tag_57:\n        /* \"contracts/FamilyFund.sol\":1705:1712  remains */\n      0x03\n      0x00\n        /* \"contracts/FamilyFund.sol\":1698:1712  delete remains */\n      tag_60\n      swap2\n      swap1\n      tag_61\n      jump\t// in\n    tag_60:\n        /* \"contracts/FamilyFund.sol\":1727:1734  uint8 i */\n      0x00\n        /* \"contracts/FamilyFund.sol\":1722:1847  for (uint8 i = 0; i < members.length; i++)... */\n    tag_62:\n        /* \"contracts/FamilyFund.sol\":1744:1751  members */\n      0x02\n        /* \"contracts/FamilyFund.sol\":1744:1758  members.length */\n      dup1\n      sload\n      swap1\n      pop\n        /* \"contracts/FamilyFund.sol\":1740:1741  i */\n      dup2\n        /* \"contracts/FamilyFund.sol\":1740:1758  i < members.length */\n      0xff\n      and\n      lt\n        /* \"contracts/FamilyFund.sol\":1722:1847  for (uint8 i = 0; i < members.length; i++)... */\n      iszero\n      tag_63\n      jumpi\n        /* \"contracts/FamilyFund.sol\":1804:1805  0 */\n      0x00\n        /* \"contracts/FamilyFund.sol\":1781:1788  winners */\n      0x05\n        /* \"contracts/FamilyFund.sol\":1781:1800  winners[members[i]] */\n      0x00\n        /* \"contracts/FamilyFund.sol\":1789:1796  members */\n      0x02\n        /* \"contracts/FamilyFund.sol\":1797:1798  i */\n      dup5\n        /* \"contracts/FamilyFund.sol\":1789:1799  members[i] */\n      0xff\n      and\n      dup2\n      sload\n      dup2\n      lt\n      tag_65\n      jumpi\n      tag_66\n      tag_67\n      jump\t// in\n    tag_66:\n    tag_65:\n      swap1\n      0x00\n      mstore\n      keccak256(0x00, 0x20)\n      add\n      0x00\n      swap1\n      sload\n      swap1\n      0x0100\n      exp\n      swap1\n      div\n      0xffffffffffffffffffffffffffffffffffffffff\n      and\n        /* \"contracts/FamilyFund.sol\":1781:1800  winners[members[i]] */\n      0xffffffffffffffffffffffffffffffffffffffff\n      and\n      0xffffffffffffffffffffffffffffffffffffffff\n      and\n      dup2\n      mstore\n      0x20\n      add\n      swap1\n      dup2\n      mstore\n      0x20\n      add\n      0x00\n      keccak256\n      0x00\n      swap1\n      sload\n      swap1\n      0x0100\n      exp\n      swap1\n      div\n      0xff\n      and\n        /* \"contracts/FamilyFund.sol\":1781:1805  winners[members[i]] == 0 */\n      0xff\n      and\n      sub\n        /* \"contracts/FamilyFund.sol\":1777:1847  if (winners[members[i]] == 0)... */\n      tag_69\n      jumpi\n        /* \"contracts/FamilyFund.sol\":1823:1830  remains */\n      0x03\n        /* \"contracts/FamilyFund.sol\":1836:1843  members */\n      0x02\n        /* \"contracts/FamilyFund.sol\":1844:1845  i */\n      dup3\n        /* \"contracts/FamilyFund.sol\":1836:1846  members[i] */\n      0xff\n      and\n      dup2\n      sload\n      dup2\n      lt\n      tag_70\n      jumpi\n      tag_71\n      tag_67\n      jump\t// in\n    tag_71:\n    tag_70:\n      swap1\n      0x00\n      mstore\n      keccak256(0x00, 0x20)\n      add\n      0x00\n      swap1\n      sload\n      swap1\n      0x0100\n      exp\n      swap1\n      div\n      0xffffffffffffffffffffffffffffffffffffffff\n      and\n        /* \"contracts/FamilyFund.sol\":1823:1847  remains.push(members[i]) */\n      swap1\n      dup1\n      0x01\n      dup2\n      sload\n      add\n      dup1\n      dup3\n      sstore\n      dup1\n      swap2\n      pop\n      pop\n      0x01\n      swap1\n      sub\n      swap1\n      0x00\n      mstore\n      keccak256(0x00, 0x20)\n      add\n      0x00\n      swap1\n      swap2\n      swap1\n      swap2\n      swap1\n      swap2\n      0x0100\n      exp\n      dup2\n      sload\n      dup2\n      0xffffffffffffffffffffffffffffffffffffffff\n      mul\n      not\n      and\n      swap1\n      dup4\n      0xffffffffffffffffffffffffffffffffffffffff\n      and\n      mul\n      or\n      swap1\n      sstore\n      pop\n        /* \"contracts/FamilyFund.sol\":1777:1847  if (winners[members[i]] == 0)... */\n    tag_69:\n        /* \"contracts/FamilyFund.sol\":1760:1763  i++ */\n      dup1\n      dup1\n      tag_74\n      swap1\n      tag_75\n      jump\t// in\n    tag_74:\n      swap2\n      pop\n      pop\n        /* \"contracts/FamilyFund.sol\":1722:1847  for (uint8 i = 0; i < members.length; i++)... */\n      jump(tag_62)\n    tag_63:\n      pop\n        /* \"contracts/FamilyFund.sol\":1880:1881  1 */\n      0x01\n        /* \"contracts/FamilyFund.sol\":1862:1869  remains */\n      0x03\n        /* \"contracts/FamilyFund.sol\":1862:1876  remains.length */\n      dup1\n      sload\n      swap1\n      pop\n        /* \"contracts/FamilyFund.sol\":1862:1881  remains.length == 1 */\n      sub\n        /* \"contracts/FamilyFund.sol\":1858:2253  if (remains.length == 1) {... */\n      tag_76\n      jumpi\n        /* \"contracts/FamilyFund.sol\":1936:1961  weHaveAWinner(remains[0]) */\n      tag_77\n        /* \"contracts/FamilyFund.sol\":1950:1957  remains */\n      0x03\n        /* \"contracts/FamilyFund.sol\":1958:1959  0 */\n      0x00\n        /* \"contracts/FamilyFund.sol\":1950:1960  remains[0] */\n      dup2\n      sload\n      dup2\n      lt\n      tag_78\n      jumpi\n      tag_79\n      tag_67\n      jump\t// in\n    tag_79:\n    tag_78:\n      swap1\n      0x00\n      mstore\n      keccak256(0x00, 0x20)\n      add\n      0x00\n      swap1\n      sload\n      swap1\n      0x0100\n      exp\n      swap1\n      div\n      0xffffffffffffffffffffffffffffffffffffffff\n      and\n        /* \"contracts/FamilyFund.sol\":1936:1949  weHaveAWinner */\n      tag_81\n        /* \"contracts/FamilyFund.sol\":1936:1961  weHaveAWinner(remains[0]) */\n      jump\t// in\n    tag_77:\n        /* \"contracts/FamilyFund.sol\":1990:1995  false */\n      0x00\n        /* \"contracts/FamilyFund.sol\":1975:1987  isFundActive */\n      0x01\n      0x02\n        /* \"contracts/FamilyFund.sol\":1975:1995  isFundActive = false */\n      0x0100\n      exp\n      dup2\n      sload\n      dup2\n      0xff\n      mul\n      not\n      and\n      swap1\n      dup4\n      iszero\n      iszero\n      mul\n      or\n      swap1\n      sstore\n      pop\n        /* \"contracts/FamilyFund.sol\":1858:2253  if (remains.length == 1) {... */\n      jump(tag_82)\n    tag_76:\n        /* \"contracts/FamilyFund.sol\":2033:2034  1 */\n      0x01\n        /* \"contracts/FamilyFund.sol\":2016:2023  remains */\n      0x03\n        /* \"contracts/FamilyFund.sol\":2016:2030  remains.length */\n      dup1\n      sload\n      swap1\n      pop\n        /* \"contracts/FamilyFund.sol\":2016:2034  remains.length > 1 */\n      gt\n        /* \"contracts/FamilyFund.sol\":2012:2253  if (remains.length > 1) {... */\n      iszero\n      tag_83\n      jumpi\n        /* \"contracts/FamilyFund.sol\":2083:2099  uint winnerIndex */\n      0x00\n        /* \"contracts/FamilyFund.sol\":2102:2130  chooseRandom(remains.length) */\n      tag_84\n        /* \"contracts/FamilyFund.sol\":2115:2122  remains */\n      0x03\n        /* \"contracts/FamilyFund.sol\":2115:2129  remains.length */\n      dup1\n      sload\n      swap1\n      pop\n        /* \"contracts/FamilyFund.sol\":2102:2114  chooseRandom */\n      tag_85\n        /* \"contracts/FamilyFund.sol\":2102:2130  chooseRandom(remains.length) */\n      jump\t// in\n    tag_84:\n        /* \"contracts/FamilyFund.sol\":2083:2130  uint winnerIndex = chooseRandom(remains.length) */\n      swap1\n      pop\n        /* \"contracts/FamilyFund.sol\":2144:2179  weHaveAWinner(members[winnerIndex]) */\n      tag_86\n        /* \"contracts/FamilyFund.sol\":2158:2165  members */\n      0x02\n        /* \"contracts/FamilyFund.sol\":2166:2177  winnerIndex */\n      dup3\n        /* \"contracts/FamilyFund.sol\":2158:2178  members[winnerIndex] */\n      dup2\n      sload\n      dup2\n      lt\n      tag_87\n      jumpi\n      tag_88\n      tag_67\n      jump\t// in\n    tag_88:\n    tag_87:\n      swap1\n      0x00\n      mstore\n      keccak256(0x00, 0x20)\n      add\n      0x00\n      swap1\n      sload\n      swap1\n      0x0100\n      exp\n      swap1\n      div\n      0xffffffffffffffffffffffffffffffffffffffff\n      and\n        /* \"contracts/FamilyFund.sol\":2144:2157  weHaveAWinner */\n      tag_81\n        /* \"contracts/FamilyFund.sol\":2144:2179  weHaveAWinner(members[winnerIndex]) */\n      jump\t// in\n    tag_86:\n        /* \"contracts/FamilyFund.sol\":2193:2198  round */\n      0x01\n      0x00\n        /* \"contracts/FamilyFund.sol\":2193:2200  round++ */\n      dup2\n      dup2\n      swap1\n      sload\n      swap1\n      0x0100\n      exp\n      swap1\n      div\n      0xff\n      and\n      dup1\n      swap3\n      swap2\n      swap1\n      tag_90\n      swap1\n      tag_75\n      jump\t// in\n    tag_90:\n      swap2\n      swap1\n      0x0100\n      exp\n      dup2\n      sload\n      dup2\n      0xff\n      mul\n      not\n      and\n      swap1\n      dup4\n      0xff\n      and\n      mul\n      or\n      swap1\n      sstore\n      pop\n      pop\n        /* \"contracts/FamilyFund.sol\":2036:2211  {... */\n      pop\n        /* \"contracts/FamilyFund.sol\":2012:2253  if (remains.length > 1) {... */\n      jump(tag_91)\n    tag_83:\n        /* \"contracts/FamilyFund.sol\":2217:2253  revert(\"Something bad is happened!\") */\n      mload(0x40)\n      0x08c379a000000000000000000000000000000000000000000000000000000000\n      dup2\n      mstore\n      0x04\n      add\n      tag_92\n      swap1\n      tag_93\n      jump\t// in\n    tag_92:\n      mload(0x40)\n      dup1\n      swap2\n      sub\n      swap1\n      revert\n        /* \"contracts/FamilyFund.sol\":2012:2253  if (remains.length > 1) {... */\n    tag_91:\n        /* \"contracts/FamilyFund.sol\":1858:2253  if (remains.length == 1) {... */\n    tag_82:\n        /* \"contracts/FamilyFund.sol\":1428:2260  function chooseWinner() public OwnerOnly {... */\n      jump\t// out\n        /* \"contracts/FamilyFund.sol\":2374:2617  function findMember(address _address) private view returns (bool) {... */\n    tag_17:\n        /* \"contracts/FamilyFund.sol\":2434:2438  bool */\n      0x00\n        /* \"contracts/FamilyFund.sol\":2455:2462  uint8 i */\n      dup1\n        /* \"contracts/FamilyFund.sol\":2465:2466  0 */\n      0x00\n        /* \"contracts/FamilyFund.sol\":2455:2466  uint8 i = 0 */\n      swap1\n      pop\n        /* \"contracts/FamilyFund.sol\":2450:2589  for (uint8 i = 0; i < members.length; i++) {... */\n    tag_95:\n        /* \"contracts/FamilyFund.sol\":2472:2479  members */\n      0x02\n        /* \"contracts/FamilyFund.sol\":2472:2486  members.length */\n      dup1\n      sload\n      swap1\n      pop\n        /* \"contracts/FamilyFund.sol\":2468:2469  i */\n      dup2\n        /* \"contracts/FamilyFund.sol\":2468:2486  i < members.length */\n      0xff\n      and\n      lt\n        /* \"contracts/FamilyFund.sol\":2450:2589  for (uint8 i = 0; i < members.length; i++) {... */\n      iszero\n      tag_96\n      jumpi\n        /* \"contracts/FamilyFund.sol\":2525:2533  _address */\n      dup3\n        /* \"contracts/FamilyFund.sol\":2511:2533  members[i] == _address */\n      0xffffffffffffffffffffffffffffffffffffffff\n      and\n        /* \"contracts/FamilyFund.sol\":2511:2518  members */\n      0x02\n        /* \"contracts/FamilyFund.sol\":2519:2520  i */\n      dup3\n        /* \"contracts/FamilyFund.sol\":2511:2521  members[i] */\n      0xff\n      and\n      dup2\n      sload\n      dup2\n      lt\n      tag_98\n      jumpi\n      tag_99\n      tag_67\n      jump\t// in\n    tag_99:\n    tag_98:\n      swap1\n      0x00\n      mstore\n      keccak256(0x00, 0x20)\n      add\n      0x00\n      swap1\n      sload\n      swap1\n      0x0100\n      exp\n      swap1\n      div\n      0xffffffffffffffffffffffffffffffffffffffff\n      and\n        /* \"contracts/FamilyFund.sol\":2511:2533  members[i] == _address */\n      0xffffffffffffffffffffffffffffffffffffffff\n      and\n      sub\n        /* \"contracts/FamilyFund.sol\":2507:2579  if (members[i] == _address) {... */\n      tag_101\n      jumpi\n        /* \"contracts/FamilyFund.sol\":2560:2564  true */\n      0x01\n        /* \"contracts/FamilyFund.sol\":2553:2564  return true */\n      swap2\n      pop\n      pop\n      jump(tag_94)\n        /* \"contracts/FamilyFund.sol\":2507:2579  if (members[i] == _address) {... */\n    tag_101:\n        /* \"contracts/FamilyFund.sol\":2488:2491  i++ */\n      dup1\n      dup1\n      tag_102\n      swap1\n      tag_75\n      jump\t// in\n    tag_102:\n      swap2\n      pop\n      pop\n        /* \"contracts/FamilyFund.sol\":2450:2589  for (uint8 i = 0; i < members.length; i++) {... */\n      jump(tag_95)\n    tag_96:\n      pop\n        /* \"contracts/FamilyFund.sol\":2605:2610  false */\n      0x00\n        /* \"contracts/FamilyFund.sol\":2598:2610  return false */\n      swap1\n      pop\n        /* \"contracts/FamilyFund.sol\":2374:2617  function findMember(address _address) private view returns (bool) {... */\n    tag_94:\n      swap2\n      swap1\n      pop\n      jump\t// out\n        /* \"contracts/FamilyFund.sol\":2623:2832  function isAllPaidInRound() private view returns (bool) {... */\n    tag_56:\n        /* \"contracts/FamilyFund.sol\":2673:2677  bool */\n      0x00\n        /* \"contracts/FamilyFund.sol\":2694:2701  uint8 i */\n      dup1\n        /* \"contracts/FamilyFund.sol\":2704:2705  0 */\n      0x00\n        /* \"contracts/FamilyFund.sol\":2694:2705  uint8 i = 0 */\n      swap1\n      pop\n        /* \"contracts/FamilyFund.sol\":2689:2804  for (uint8 i = 0; i < members.length; i++)... */\n    tag_104:\n        /* \"contracts/FamilyFund.sol\":2711:2718  members */\n      0x02\n        /* \"contracts/FamilyFund.sol\":2711:2725  members.length */\n      dup1\n      sload\n      swap1\n      pop\n        /* \"contracts/FamilyFund.sol\":2707:2708  i */\n      dup2\n        /* \"contracts/FamilyFund.sol\":2707:2725  i < members.length */\n      0xff\n      and\n      lt\n        /* \"contracts/FamilyFund.sol\":2689:2804  for (uint8 i = 0; i < members.length; i++)... */\n      iszero\n      tag_105\n      jumpi\n        /* \"contracts/FamilyFund.sol\":2785:2790  false */\n      0x00\n        /* \"contracts/FamilyFund.sol\":2748:2790  paidShares[members[i]][round - 1] == false */\n      iszero\n      iszero\n        /* \"contracts/FamilyFund.sol\":2748:2758  paidShares */\n      0x04\n        /* \"contracts/FamilyFund.sol\":2748:2770  paidShares[members[i]] */\n      0x00\n        /* \"contracts/FamilyFund.sol\":2759:2766  members */\n      0x02\n        /* \"contracts/FamilyFund.sol\":2767:2768  i */\n      dup5\n        /* \"contracts/FamilyFund.sol\":2759:2769  members[i] */\n      0xff\n      and\n      dup2\n      sload\n      dup2\n      lt\n      tag_107\n      jumpi\n      tag_108\n      tag_67\n      jump\t// in\n    tag_108:\n    tag_107:\n      swap1\n      0x00\n      mstore\n      keccak256(0x00, 0x20)\n      add\n      0x00\n      swap1\n      sload\n      swap1\n      0x0100\n      exp\n      swap1\n      div\n      0xffffffffffffffffffffffffffffffffffffffff\n      and\n        /* \"contracts/FamilyFund.sol\":2748:2770  paidShares[members[i]] */\n      0xffffffffffffffffffffffffffffffffffffffff\n      and\n      0xffffffffffffffffffffffffffffffffffffffff\n      and\n      dup2\n      mstore\n      0x20\n      add\n      swap1\n      dup2\n      mstore\n      0x20\n      add\n      0x00\n      keccak256\n        /* \"contracts/FamilyFund.sol\":2748:2781  paidShares[members[i]][round - 1] */\n      0x00\n        /* \"contracts/FamilyFund.sol\":2779:2780  1 */\n      0x01\n        /* \"contracts/FamilyFund.sol\":2771:2776  round */\n      dup1\n      0x00\n      swap1\n      sload\n      swap1\n      0x0100\n      exp\n      swap1\n      div\n      0xff\n      and\n        /* \"contracts/FamilyFund.sol\":2771:2780  round - 1 */\n      tag_110\n      swap2\n      swap1\n      tag_22\n      jump\t// in\n    tag_110:\n        /* \"contracts/FamilyFund.sol\":2748:2781  paidShares[members[i]][round - 1] */\n      0xff\n      and\n      0xff\n      and\n      dup2\n      mstore\n      0x20\n      add\n      swap1\n      dup2\n      mstore\n      0x20\n      add\n      0x00\n      keccak256\n      0x00\n      swap1\n      sload\n      swap1\n      0x0100\n      exp\n      swap1\n      div\n      0xff\n      and\n        /* \"contracts/FamilyFund.sol\":2748:2790  paidShares[members[i]][round - 1] == false */\n      iszero\n      iszero\n      sub\n        /* \"contracts/FamilyFund.sol\":2744:2804  if (paidShares[members[i]][round - 1] == false) return false */\n      tag_111\n      jumpi\n        /* \"contracts/FamilyFund.sol\":2799:2804  false */\n      0x00\n        /* \"contracts/FamilyFund.sol\":2792:2804  return false */\n      swap2\n      pop\n      pop\n      jump(tag_103)\n        /* \"contracts/FamilyFund.sol\":2744:2804  if (paidShares[members[i]][round - 1] == false) return false */\n    tag_111:\n        /* \"contracts/FamilyFund.sol\":2727:2730  i++ */\n      dup1\n      dup1\n      tag_112\n      swap1\n      tag_75\n      jump\t// in\n    tag_112:\n      swap2\n      pop\n      pop\n        /* \"contracts/FamilyFund.sol\":2689:2804  for (uint8 i = 0; i < members.length; i++)... */\n      jump(tag_104)\n    tag_105:\n      pop\n        /* \"contracts/FamilyFund.sol\":2821:2825  true */\n      0x01\n        /* \"contracts/FamilyFund.sol\":2814:2825  return true */\n      swap1\n      pop\n        /* \"contracts/FamilyFund.sol\":2623:2832  function isAllPaidInRound() private view returns (bool) {... */\n    tag_103:\n      swap1\n      jump\t// out\n        /* \"contracts/FamilyFund.sol\":2982:3137  function weHaveAWinner(address payable _winner) private {... */\n    tag_81:\n        /* \"contracts/FamilyFund.sol\":3067:3072  round */\n      0x01\n      0x00\n      swap1\n      sload\n      swap1\n      0x0100\n      exp\n      swap1\n      div\n      0xff\n      and\n        /* \"contracts/FamilyFund.sol\":3048:3055  winners */\n      0x05\n        /* \"contracts/FamilyFund.sol\":3048:3064  winners[_winner] */\n      0x00\n        /* \"contracts/FamilyFund.sol\":3056:3063  _winner */\n      dup4\n        /* \"contracts/FamilyFund.sol\":3048:3064  winners[_winner] */\n      0xffffffffffffffffffffffffffffffffffffffff\n      and\n      0xffffffffffffffffffffffffffffffffffffffff\n      and\n      dup2\n      mstore\n      0x20\n      add\n      swap1\n      dup2\n      mstore\n      0x20\n      add\n      0x00\n      keccak256\n      0x00\n        /* \"contracts/FamilyFund.sol\":3048:3072  winners[_winner] = round */\n      0x0100\n      exp\n      dup2\n      sload\n      dup2\n      0xff\n      mul\n      not\n      and\n      swap1\n      dup4\n      0xff\n      and\n      mul\n      or\n      swap1\n      sstore\n      pop\n        /* \"contracts/FamilyFund.sol\":3090:3097  _winner */\n      dup1\n        /* \"contracts/FamilyFund.sol\":3082:3107  payable(_winner).transfer */\n      0xffffffffffffffffffffffffffffffffffffffff\n      and\n        /* \"contracts/FamilyFund.sol\":3082:3130  payable(_winner).transfer(address(this).balance) */\n      0x08fc\n        /* \"contracts/FamilyFund.sol\":3108:3129  address(this).balance */\n      selfbalance\n        /* \"contracts/FamilyFund.sol\":3082:3130  payable(_winner).transfer(address(this).balance) */\n      swap1\n      dup2\n      iszero\n      mul\n      swap1\n      mload(0x40)\n      0x00\n      mload(0x40)\n      dup1\n      dup4\n      sub\n      dup2\n      dup6\n      dup9\n      dup9\n      call\n      swap4\n      pop\n      pop\n      pop\n      pop\n      iszero\n      dup1\n      iszero\n      tag_115\n      jumpi\n      returndatasize\n      0x00\n      dup1\n      returndatacopy\n      revert(0x00, returndatasize)\n    tag_115:\n      pop\n        /* \"contracts/FamilyFund.sol\":2982:3137  function weHaveAWinner(address payable _winner) private {... */\n      pop\n      jump\t// out\n        /* \"contracts/FamilyFund.sol\":2838:2976  function chooseRandom(uint _count) private view returns (uint) {... */\n    tag_85:\n        /* \"contracts/FamilyFund.sol\":2895:2899  uint */\n      0x00\n        /* \"contracts/FamilyFund.sol\":2962:2968  _count */\n      dup2\n        /* \"contracts/FamilyFund.sol\":2943:2958  block.timestamp */\n      timestamp\n        /* \"contracts/FamilyFund.sol\":2924:2940  block.prevrandao */\n      prevrandao\n        /* \"contracts/FamilyFund.sol\":2924:2958  block.prevrandao + block.timestamp */\n      tag_117\n      swap2\n      swap1\n      tag_118\n      jump\t// in\n    tag_117:\n        /* \"contracts/FamilyFund.sol\":2923:2968  (block.prevrandao + block.timestamp) % _count */\n      tag_119\n      swap2\n      swap1\n      tag_120\n      jump\t// in\n    tag_119:\n        /* \"contracts/FamilyFund.sol\":2911:2969  return uint((block.prevrandao + block.timestamp) % _count) */\n      swap1\n      pop\n        /* \"contracts/FamilyFund.sol\":2838:2976  function chooseRandom(uint _count) private view returns (uint) {... */\n      swap2\n      swap1\n      pop\n      jump\t// out\n    tag_61:\n      pop\n      dup1\n      sload\n      0x00\n      dup3\n      sstore\n      swap1\n      0x00\n      mstore\n      keccak256(0x00, 0x20)\n      swap1\n      dup2\n      add\n      swap1\n      tag_122\n      swap2\n      swap1\n      tag_123\n      jump\t// in\n    tag_122:\n      pop\n      jump\t// out\n    tag_123:\n    tag_124:\n      dup1\n      dup3\n      gt\n      iszero\n      tag_125\n      jumpi\n      0x00\n      dup2\n      0x00\n      swap1\n      sstore\n      pop\n      0x01\n      add\n      jump(tag_124)\n    tag_125:\n      pop\n      swap1\n      jump\t// out\n        /* \"#utility.yul\":88:205   */\n    tag_127:\n        /* \"#utility.yul\":197:198   */\n      0x00\n        /* \"#utility.yul\":194:195   */\n      dup1\n        /* \"#utility.yul\":187:199   */\n      revert\n        /* \"#utility.yul\":334:460   */\n    tag_129:\n        /* \"#utility.yul\":371:378   */\n      0x00\n        /* \"#utility.yul\":411:453   */\n      0xffffffffffffffffffffffffffffffffffffffff\n        /* \"#utility.yul\":404:409   */\n      dup3\n        /* \"#utility.yul\":400:454   */\n      and\n        /* \"#utility.yul\":389:454   */\n      swap1\n      pop\n        /* \"#utility.yul\":334:460   */\n      swap2\n      swap1\n      pop\n      jump\t// out\n        /* \"#utility.yul\":466:570   */\n    tag_130:\n        /* \"#utility.yul\":511:518   */\n      0x00\n        /* \"#utility.yul\":540:564   */\n      tag_164\n        /* \"#utility.yul\":558:563   */\n      dup3\n        /* \"#utility.yul\":540:564   */\n      tag_129\n      jump\t// in\n    tag_164:\n        /* \"#utility.yul\":529:564   */\n      swap1\n      pop\n        /* \"#utility.yul\":466:570   */\n      swap2\n      swap1\n      pop\n      jump\t// out\n        /* \"#utility.yul\":576:714   */\n    tag_131:\n        /* \"#utility.yul\":657:689   */\n      tag_166\n        /* \"#utility.yul\":683:688   */\n      dup2\n        /* \"#utility.yul\":657:689   */\n      tag_130\n      jump\t// in\n    tag_166:\n        /* \"#utility.yul\":650:655   */\n      dup2\n        /* \"#utility.yul\":647:690   */\n      eq\n        /* \"#utility.yul\":637:708   */\n      tag_167\n      jumpi\n        /* \"#utility.yul\":704:705   */\n      0x00\n        /* \"#utility.yul\":701:702   */\n      dup1\n        /* \"#utility.yul\":694:706   */\n      revert\n        /* \"#utility.yul\":637:708   */\n    tag_167:\n        /* \"#utility.yul\":576:714   */\n      pop\n      jump\t// out\n        /* \"#utility.yul\":720:875   */\n    tag_132:\n        /* \"#utility.yul\":774:779   */\n      0x00\n        /* \"#utility.yul\":812:818   */\n      dup2\n        /* \"#utility.yul\":799:819   */\n      calldataload\n        /* \"#utility.yul\":790:819   */\n      swap1\n      pop\n        /* \"#utility.yul\":828:869   */\n      tag_169\n        /* \"#utility.yul\":863:868   */\n      dup2\n        /* \"#utility.yul\":828:869   */\n      tag_131\n      jump\t// in\n    tag_169:\n        /* \"#utility.yul\":720:875   */\n      swap3\n      swap2\n      pop\n      pop\n      jump\t// out\n        /* \"#utility.yul\":881:1226   */\n    tag_10:\n        /* \"#utility.yul\":948:954   */\n      0x00\n        /* \"#utility.yul\":997:999   */\n      0x20\n        /* \"#utility.yul\":985:994   */\n      dup3\n        /* \"#utility.yul\":976:983   */\n      dup5\n        /* \"#utility.yul\":972:995   */\n      sub\n        /* \"#utility.yul\":968:1000   */\n      slt\n        /* \"#utility.yul\":965:1084   */\n      iszero\n      tag_171\n      jumpi\n        /* \"#utility.yul\":1003:1082   */\n      tag_172\n      tag_127\n      jump\t// in\n    tag_172:\n        /* \"#utility.yul\":965:1084   */\n    tag_171:\n        /* \"#utility.yul\":1123:1124   */\n      0x00\n        /* \"#utility.yul\":1148:1209   */\n      tag_173\n        /* \"#utility.yul\":1201:1208   */\n      dup5\n        /* \"#utility.yul\":1192:1198   */\n      dup3\n        /* \"#utility.yul\":1181:1190   */\n      dup6\n        /* \"#utility.yul\":1177:1199   */\n      add\n        /* \"#utility.yul\":1148:1209   */\n      tag_132\n      jump\t// in\n    tag_173:\n        /* \"#utility.yul\":1138:1209   */\n      swap2\n      pop\n        /* \"#utility.yul\":1094:1219   */\n      pop\n        /* \"#utility.yul\":881:1226   */\n      swap3\n      swap2\n      pop\n      pop\n      jump\t// out\n        /* \"#utility.yul\":1232:1401   */\n    tag_133:\n        /* \"#utility.yul\":1316:1327   */\n      0x00\n        /* \"#utility.yul\":1350:1356   */\n      dup3\n        /* \"#utility.yul\":1345:1348   */\n      dup3\n        /* \"#utility.yul\":1338:1357   */\n      mstore\n        /* \"#utility.yul\":1390:1394   */\n      0x20\n        /* \"#utility.yul\":1385:1388   */\n      dup3\n        /* \"#utility.yul\":1381:1395   */\n      add\n        /* \"#utility.yul\":1366:1395   */\n      swap1\n      pop\n        /* \"#utility.yul\":1232:1401   */\n      swap3\n      swap2\n      pop\n      pop\n      jump\t// out\n        /* \"#utility.yul\":1407:1570   */\n    tag_134:\n        /* \"#utility.yul\":1547:1562   */\n      0x4e6f742061206d656d6265722100000000000000000000000000000000000000\n        /* \"#utility.yul\":1543:1544   */\n      0x00\n        /* \"#utility.yul\":1535:1541   */\n      dup3\n        /* \"#utility.yul\":1531:1545   */\n      add\n        /* \"#utility.yul\":1524:1563   */\n      mstore\n        /* \"#utility.yul\":1407:1570   */\n      pop\n      jump\t// out\n        /* \"#utility.yul\":1576:1942   */\n    tag_135:\n        /* \"#utility.yul\":1718:1721   */\n      0x00\n        /* \"#utility.yul\":1739:1806   */\n      tag_177\n        /* \"#utility.yul\":1803:1805   */\n      0x0d\n        /* \"#utility.yul\":1798:1801   */\n      dup4\n        /* \"#utility.yul\":1739:1806   */\n      tag_133\n      jump\t// in\n    tag_177:\n        /* \"#utility.yul\":1732:1806   */\n      swap2\n      pop\n        /* \"#utility.yul\":1815:1908   */\n      tag_178\n        /* \"#utility.yul\":1904:1907   */\n      dup3\n        /* \"#utility.yul\":1815:1908   */\n      tag_134\n      jump\t// in\n    tag_178:\n        /* \"#utility.yul\":1933:1935   */\n      0x20\n        /* \"#utility.yul\":1928:1931   */\n      dup3\n        /* \"#utility.yul\":1924:1936   */\n      add\n        /* \"#utility.yul\":1917:1936   */\n      swap1\n      pop\n        /* \"#utility.yul\":1576:1942   */\n      swap2\n      swap1\n      pop\n      jump\t// out\n        /* \"#utility.yul\":1948:2367   */\n    tag_20:\n        /* \"#utility.yul\":2114:2118   */\n      0x00\n        /* \"#utility.yul\":2152:2154   */\n      0x20\n        /* \"#utility.yul\":2141:2150   */\n      dup3\n        /* \"#utility.yul\":2137:2155   */\n      add\n        /* \"#utility.yul\":2129:2155   */\n      swap1\n      pop\n        /* \"#utility.yul\":2201:2210   */\n      dup2\n        /* \"#utility.yul\":2195:2199   */\n      dup2\n        /* \"#utility.yul\":2191:2211   */\n      sub\n        /* \"#utility.yul\":2187:2188   */\n      0x00\n        /* \"#utility.yul\":2176:2185   */\n      dup4\n        /* \"#utility.yul\":2172:2189   */\n      add\n        /* \"#utility.yul\":2165:2212   */\n      mstore\n        /* \"#utility.yul\":2229:2360   */\n      tag_180\n        /* \"#utility.yul\":2355:2359   */\n      dup2\n        /* \"#utility.yul\":2229:2360   */\n      tag_135\n      jump\t// in\n    tag_180:\n        /* \"#utility.yul\":2221:2360   */\n      swap1\n      pop\n        /* \"#utility.yul\":1948:2367   */\n      swap2\n      swap1\n      pop\n      jump\t// out\n        /* \"#utility.yul\":2373:2459   */\n    tag_136:\n        /* \"#utility.yul\":2408:2415   */\n      0x00\n        /* \"#utility.yul\":2448:2452   */\n      0xff\n        /* \"#utility.yul\":2441:2446   */\n      dup3\n        /* \"#utility.yul\":2437:2453   */\n      and\n        /* \"#utility.yul\":2426:2453   */\n      swap1\n      pop\n        /* \"#utility.yul\":2373:2459   */\n      swap2\n      swap1\n      pop\n      jump\t// out\n        /* \"#utility.yul\":2465:2645   */\n    tag_137:\n        /* \"#utility.yul\":2513:2590   */\n      0x4e487b7100000000000000000000000000000000000000000000000000000000\n        /* \"#utility.yul\":2510:2511   */\n      0x00\n        /* \"#utility.yul\":2503:2591   */\n      mstore\n        /* \"#utility.yul\":2610:2614   */\n      0x11\n        /* \"#utility.yul\":2607:2608   */\n      0x04\n        /* \"#utility.yul\":2600:2615   */\n      mstore\n        /* \"#utility.yul\":2634:2638   */\n      0x24\n        /* \"#utility.yul\":2631:2632   */\n      0x00\n        /* \"#utility.yul\":2624:2639   */\n      revert\n        /* \"#utility.yul\":2651:2842   */\n    tag_22:\n        /* \"#utility.yul\":2689:2693   */\n      0x00\n        /* \"#utility.yul\":2709:2727   */\n      tag_184\n        /* \"#utility.yul\":2725:2726   */\n      dup3\n        /* \"#utility.yul\":2709:2727   */\n      tag_136\n      jump\t// in\n    tag_184:\n        /* \"#utility.yul\":2704:2727   */\n      swap2\n      pop\n        /* \"#utility.yul\":2741:2759   */\n      tag_185\n        /* \"#utility.yul\":2757:2758   */\n      dup4\n        /* \"#utility.yul\":2741:2759   */\n      tag_136\n      jump\t// in\n    tag_185:\n        /* \"#utility.yul\":2736:2759   */\n      swap3\n      pop\n        /* \"#utility.yul\":2783:2784   */\n      dup3\n        /* \"#utility.yul\":2780:2781   */\n      dup3\n        /* \"#utility.yul\":2776:2785   */\n      sub\n        /* \"#utility.yul\":2768:2785   */\n      swap1\n      pop\n        /* \"#utility.yul\":2807:2811   */\n      0xff\n        /* \"#utility.yul\":2801:2805   */\n      dup2\n        /* \"#utility.yul\":2798:2812   */\n      gt\n        /* \"#utility.yul\":2795:2835   */\n      iszero\n      tag_186\n      jumpi\n        /* \"#utility.yul\":2815:2833   */\n      tag_187\n      tag_137\n      jump\t// in\n    tag_187:\n        /* \"#utility.yul\":2795:2835   */\n    tag_186:\n        /* \"#utility.yul\":2651:2842   */\n      swap3\n      swap2\n      pop\n      pop\n      jump\t// out\n        /* \"#utility.yul\":2848:3024   */\n    tag_138:\n        /* \"#utility.yul\":2988:3016   */\n      0x416c7265616479207061696420696e207468697320726f756e64000000000000\n        /* \"#utility.yul\":2984:2985   */\n      0x00\n        /* \"#utility.yul\":2976:2982   */\n      dup3\n        /* \"#utility.yul\":2972:2986   */\n      add\n        /* \"#utility.yul\":2965:3017   */\n      mstore\n        /* \"#utility.yul\":2848:3024   */\n      pop\n      jump\t// out\n        /* \"#utility.yul\":3030:3396   */\n    tag_139:\n        /* \"#utility.yul\":3172:3175   */\n      0x00\n        /* \"#utility.yul\":3193:3260   */\n      tag_190\n        /* \"#utility.yul\":3257:3259   */\n      0x1a\n        /* \"#utility.yul\":3252:3255   */\n      dup4\n        /* \"#utility.yul\":3193:3260   */\n      tag_133\n      jump\t// in\n    tag_190:\n        /* \"#utility.yul\":3186:3260   */\n      swap2\n      pop\n        /* \"#utility.yul\":3269:3362   */\n      tag_191\n        /* \"#utility.yul\":3358:3361   */\n      dup3\n        /* \"#utility.yul\":3269:3362   */\n      tag_138\n      jump\t// in\n    tag_191:\n        /* \"#utility.yul\":3387:3389   */\n      0x20\n        /* \"#utility.yul\":3382:3385   */\n      dup3\n        /* \"#utility.yul\":3378:3390   */\n      add\n        /* \"#utility.yul\":3371:3390   */\n      swap1\n      pop\n        /* \"#utility.yul\":3030:3396   */\n      swap2\n      swap1\n      pop\n      jump\t// out\n        /* \"#utility.yul\":3402:3821   */\n    tag_25:\n        /* \"#utility.yul\":3568:3572   */\n      0x00\n        /* \"#utility.yul\":3606:3608   */\n      0x20\n        /* \"#utility.yul\":3595:3604   */\n      dup3\n        /* \"#utility.yul\":3591:3609   */\n      add\n        /* \"#utility.yul\":3583:3609   */\n      swap1\n      pop\n        /* \"#utility.yul\":3655:3664   */\n      dup2\n        /* \"#utility.yul\":3649:3653   */\n      dup2\n        /* \"#utility.yul\":3645:3665   */\n      sub\n        /* \"#utility.yul\":3641:3642   */\n      0x00\n        /* \"#utility.yul\":3630:3639   */\n      dup4\n        /* \"#utility.yul\":3626:3643   */\n      add\n        /* \"#utility.yul\":3619:3666   */\n      mstore\n        /* \"#utility.yul\":3683:3814   */\n      tag_193\n        /* \"#utility.yul\":3809:3813   */\n      dup2\n        /* \"#utility.yul\":3683:3814   */\n      tag_139\n      jump\t// in\n    tag_193:\n        /* \"#utility.yul\":3675:3814   */\n      swap1\n      pop\n        /* \"#utility.yul\":3402:3821   */\n      swap2\n      swap1\n      pop\n      jump\t// out\n        /* \"#utility.yul\":3827:4004   */\n    tag_140:\n        /* \"#utility.yul\":3967:3996   */\n      0x5061796d656e742076616c7565206973206e6f742076616c6964210000000000\n        /* \"#utility.yul\":3963:3964   */\n      0x00\n        /* \"#utility.yul\":3955:3961   */\n      dup3\n        /* \"#utility.yul\":3951:3965   */\n      add\n        /* \"#utility.yul\":3944:3997   */\n      mstore\n        /* \"#utility.yul\":3827:4004   */\n      pop\n      jump\t// out\n        /* \"#utility.yul\":4010:4376   */\n    tag_141:\n        /* \"#utility.yul\":4152:4155   */\n      0x00\n        /* \"#utility.yul\":4173:4240   */\n      tag_196\n        /* \"#utility.yul\":4237:4239   */\n      0x1b\n        /* \"#utility.yul\":4232:4235   */\n      dup4\n        /* \"#utility.yul\":4173:4240   */\n      tag_133\n      jump\t// in\n    tag_196:\n        /* \"#utility.yul\":4166:4240   */\n      swap2\n      pop\n        /* \"#utility.yul\":4249:4342   */\n      tag_197\n        /* \"#utility.yul\":4338:4341   */\n      dup3\n        /* \"#utility.yul\":4249:4342   */\n      tag_140\n      jump\t// in\n    tag_197:\n        /* \"#utility.yul\":4367:4369   */\n      0x20\n        /* \"#utility.yul\":4362:4365   */\n      dup3\n        /* \"#utility.yul\":4358:4370   */\n      add\n        /* \"#utility.yul\":4351:4370   */\n      swap1\n      pop\n        /* \"#utility.yul\":4010:4376   */\n      swap2\n      swap1\n      pop\n      jump\t// out\n        /* \"#utility.yul\":4382:4801   */\n    tag_28:\n        /* \"#utility.yul\":4548:4552   */\n      0x00\n        /* \"#utility.yul\":4586:4588   */\n      0x20\n        /* \"#utility.yul\":4575:4584   */\n      dup3\n        /* \"#utility.yul\":4571:4589   */\n      add\n        /* \"#utility.yul\":4563:4589   */\n      swap1\n      pop\n        /* \"#utility.yul\":4635:4644   */\n      dup2\n        /* \"#utility.yul\":4629:4633   */\n      dup2\n        /* \"#utility.yul\":4625:4645   */\n      sub\n        /* \"#utility.yul\":4621:4622   */\n      0x00\n        /* \"#utility.yul\":4610:4619   */\n      dup4\n        /* \"#utility.yul\":4606:4623   */\n      add\n        /* \"#utility.yul\":4599:4646   */\n      mstore\n        /* \"#utility.yul\":4663:4794   */\n      tag_199\n        /* \"#utility.yul\":4789:4793   */\n      dup2\n        /* \"#utility.yul\":4663:4794   */\n      tag_141\n      jump\t// in\n    tag_199:\n        /* \"#utility.yul\":4655:4794   */\n      swap1\n      pop\n        /* \"#utility.yul\":4382:4801   */\n      swap2\n      swap1\n      pop\n      jump\t// out\n        /* \"#utility.yul\":4807:4978   */\n    tag_142:\n        /* \"#utility.yul\":4947:4970   */\n      0x53656e646572206e6f7420617574686f72697a65640000000000000000000000\n        /* \"#utility.yul\":4943:4944   */\n      0x00\n        /* \"#utility.yul\":4935:4941   */\n      dup3\n        /* \"#utility.yul\":4931:4945   */\n      add\n        /* \"#utility.yul\":4924:4971   */\n      mstore\n        /* \"#utility.yul\":4807:4978   */\n      pop\n      jump\t// out\n        /* \"#utility.yul\":4984:5350   */\n    tag_143:\n        /* \"#utility.yul\":5126:5129   */\n      0x00\n        /* \"#utility.yul\":5147:5214   */\n      tag_202\n        /* \"#utility.yul\":5211:5213   */\n      0x15\n        /* \"#utility.yul\":5206:5209   */\n      dup4\n        /* \"#utility.yul\":5147:5214   */\n      tag_133\n      jump\t// in\n    tag_202:\n        /* \"#utility.yul\":5140:5214   */\n      swap2\n      pop\n        /* \"#utility.yul\":5223:5316   */\n      tag_203\n        /* \"#utility.yul\":5312:5315   */\n      dup3\n        /* \"#utility.yul\":5223:5316   */\n      tag_142\n      jump\t// in\n    tag_203:\n        /* \"#utility.yul\":5341:5343   */\n      0x20\n        /* \"#utility.yul\":5336:5339   */\n      dup3\n        /* \"#utility.yul\":5332:5344   */\n      add\n        /* \"#utility.yul\":5325:5344   */\n      swap1\n      pop\n        /* \"#utility.yul\":4984:5350   */\n      swap2\n      swap1\n      pop\n      jump\t// out\n        /* \"#utility.yul\":5356:5775   */\n    tag_33:\n        /* \"#utility.yul\":5522:5526   */\n      0x00\n        /* \"#utility.yul\":5560:5562   */\n      0x20\n        /* \"#utility.yul\":5549:5558   */\n      dup3\n        /* \"#utility.yul\":5545:5563   */\n      add\n        /* \"#utility.yul\":5537:5563   */\n      swap1\n      pop\n        /* \"#utility.yul\":5609:5618   */\n      dup2\n        /* \"#utility.yul\":5603:5607   */\n      dup2\n        /* \"#utility.yul\":5599:5619   */\n      sub\n        /* \"#utility.yul\":5595:5596   */\n      0x00\n        /* \"#utility.yul\":5584:5593   */\n      dup4\n        /* \"#utility.yul\":5580:5597   */\n      add\n        /* \"#utility.yul\":5573:5620   */\n      mstore\n        /* \"#utility.yul\":5637:5768   */\n      tag_205\n        /* \"#utility.yul\":5763:5767   */\n      dup2\n        /* \"#utility.yul\":5637:5768   */\n      tag_143\n      jump\t// in\n    tag_205:\n        /* \"#utility.yul\":5629:5768   */\n      swap1\n      pop\n        /* \"#utility.yul\":5356:5775   */\n      swap2\n      swap1\n      pop\n      jump\t// out\n        /* \"#utility.yul\":5781:5946   */\n    tag_144:\n        /* \"#utility.yul\":5921:5938   */\n      0x46756e6420697320636c6f736564210000000000000000000000000000000000\n        /* \"#utility.yul\":5917:5918   */\n      0x00\n        /* \"#utility.yul\":5909:5915   */\n      dup3\n        /* \"#utility.yul\":5905:5919   */\n      add\n        /* \"#utility.yul\":5898:5939   */\n      mstore\n        /* \"#utility.yul\":5781:5946   */\n      pop\n      jump\t// out\n        /* \"#utility.yul\":5952:6318   */\n    tag_145:\n        /* \"#utility.yul\":6094:6097   */\n      0x00\n        /* \"#utility.yul\":6115:6182   */\n      tag_208\n        /* \"#utility.yul\":6179:6181   */\n      0x0f\n        /* \"#utility.yul\":6174:6177   */\n      dup4\n        /* \"#utility.yul\":6115:6182   */\n      tag_133\n      jump\t// in\n    tag_208:\n        /* \"#utility.yul\":6108:6182   */\n      swap2\n      pop\n        /* \"#utility.yul\":6191:6284   */\n      tag_209\n        /* \"#utility.yul\":6280:6283   */\n      dup3\n        /* \"#utility.yul\":6191:6284   */\n      tag_144\n      jump\t// in\n    tag_209:\n        /* \"#utility.yul\":6309:6311   */\n      0x20\n        /* \"#utility.yul\":6304:6307   */\n      dup3\n        /* \"#utility.yul\":6300:6312   */\n      add\n        /* \"#utility.yul\":6293:6312   */\n      swap1\n      pop\n        /* \"#utility.yul\":5952:6318   */\n      swap2\n      swap1\n      pop\n      jump\t// out\n        /* \"#utility.yul\":6324:6743   */\n    tag_37:\n        /* \"#utility.yul\":6490:6494   */\n      0x00\n        /* \"#utility.yul\":6528:6530   */\n      0x20\n        /* \"#utility.yul\":6517:6526   */\n      dup3\n        /* \"#utility.yul\":6513:6531   */\n      add\n        /* \"#utility.yul\":6505:6531   */\n      swap1\n      pop\n        /* \"#utility.yul\":6577:6586   */\n      dup2\n        /* \"#utility.yul\":6571:6575   */\n      dup2\n        /* \"#utility.yul\":6567:6587   */\n      sub\n        /* \"#utility.yul\":6563:6564   */\n      0x00\n        /* \"#utility.yul\":6552:6561   */\n      dup4\n        /* \"#utility.yul\":6548:6565   */\n      add\n        /* \"#utility.yul\":6541:6588   */\n      mstore\n        /* \"#utility.yul\":6605:6736   */\n      tag_211\n        /* \"#utility.yul\":6731:6735   */\n      dup2\n        /* \"#utility.yul\":6605:6736   */\n      tag_145\n      jump\t// in\n    tag_211:\n        /* \"#utility.yul\":6597:6736   */\n      swap1\n      pop\n        /* \"#utility.yul\":6324:6743   */\n      swap2\n      swap1\n      pop\n      jump\t// out\n        /* \"#utility.yul\":6749:6913   */\n    tag_146:\n        /* \"#utility.yul\":6889:6905   */\n      0x416c726561647920616464656421000000000000000000000000000000000000\n        /* \"#utility.yul\":6885:6886   */\n      0x00\n        /* \"#utility.yul\":6877:6883   */\n      dup3\n        /* \"#utility.yul\":6873:6887   */\n      add\n        /* \"#utility.yul\":6866:6906   */\n      mstore\n        /* \"#utility.yul\":6749:6913   */\n      pop\n      jump\t// out\n        /* \"#utility.yul\":6919:7285   */\n    tag_147:\n        /* \"#utility.yul\":7061:7064   */\n      0x00\n        /* \"#utility.yul\":7082:7149   */\n      tag_214\n        /* \"#utility.yul\":7146:7148   */\n      0x0e\n        /* \"#utility.yul\":7141:7144   */\n      dup4\n        /* \"#utility.yul\":7082:7149   */\n      tag_133\n      jump\t// in\n    tag_214:\n        /* \"#utility.yul\":7075:7149   */\n      swap2\n      pop\n        /* \"#utility.yul\":7158:7251   */\n      tag_215\n        /* \"#utility.yul\":7247:7250   */\n      dup3\n        /* \"#utility.yul\":7158:7251   */\n      tag_146\n      jump\t// in\n    tag_215:\n        /* \"#utility.yul\":7276:7278   */\n      0x20\n        /* \"#utility.yul\":7271:7274   */\n      dup3\n        /* \"#utility.yul\":7267:7279   */\n      add\n        /* \"#utility.yul\":7260:7279   */\n      swap1\n      pop\n        /* \"#utility.yul\":6919:7285   */\n      swap2\n      swap1\n      pop\n      jump\t// out\n        /* \"#utility.yul\":7291:7710   */\n    tag_41:\n        /* \"#utility.yul\":7457:7461   */\n      0x00\n        /* \"#utility.yul\":7495:7497   */\n      0x20\n        /* \"#utility.yul\":7484:7493   */\n      dup3\n        /* \"#utility.yul\":7480:7498   */\n      add\n        /* \"#utility.yul\":7472:7498   */\n      swap1\n      pop\n        /* \"#utility.yul\":7544:7553   */\n      dup2\n        /* \"#utility.yul\":7538:7542   */\n      dup2\n        /* \"#utility.yul\":7534:7554   */\n      sub\n        /* \"#utility.yul\":7530:7531   */\n      0x00\n        /* \"#utility.yul\":7519:7528   */\n      dup4\n        /* \"#utility.yul\":7515:7532   */\n      add\n        /* \"#utility.yul\":7508:7555   */\n      mstore\n        /* \"#utility.yul\":7572:7703   */\n      tag_217\n        /* \"#utility.yul\":7698:7702   */\n      dup2\n        /* \"#utility.yul\":7572:7703   */\n      tag_147\n      jump\t// in\n    tag_217:\n        /* \"#utility.yul\":7564:7703   */\n      swap1\n      pop\n        /* \"#utility.yul\":7291:7710   */\n      swap2\n      swap1\n      pop\n      jump\t// out\n        /* \"#utility.yul\":7716:7881   */\n    tag_148:\n        /* \"#utility.yul\":7856:7873   */\n      0x4e6f20656d707479207370616365210000000000000000000000000000000000\n        /* \"#utility.yul\":7852:7853   */\n      0x00\n        /* \"#utility.yul\":7844:7850   */\n      dup3\n        /* \"#utility.yul\":7840:7854   */\n      add\n        /* \"#utility.yul\":7833:7874   */\n      mstore\n        /* \"#utility.yul\":7716:7881   */\n      pop\n      jump\t// out\n        /* \"#utility.yul\":7887:8253   */\n    tag_149:\n        /* \"#utility.yul\":8029:8032   */\n      0x00\n        /* \"#utility.yul\":8050:8117   */\n      tag_220\n        /* \"#utility.yul\":8114:8116   */\n      0x0f\n        /* \"#utility.yul\":8109:8112   */\n      dup4\n        /* \"#utility.yul\":8050:8117   */\n      tag_133\n      jump\t// in\n    tag_220:\n        /* \"#utility.yul\":8043:8117   */\n      swap2\n      pop\n        /* \"#utility.yul\":8126:8219   */\n      tag_221\n        /* \"#utility.yul\":8215:8218   */\n      dup3\n        /* \"#utility.yul\":8126:8219   */\n      tag_148\n      jump\t// in\n    tag_221:\n        /* \"#utility.yul\":8244:8246   */\n      0x20\n        /* \"#utility.yul\":8239:8242   */\n      dup3\n        /* \"#utility.yul\":8235:8247   */\n      add\n        /* \"#utility.yul\":8228:8247   */\n      swap1\n      pop\n        /* \"#utility.yul\":7887:8253   */\n      swap2\n      swap1\n      pop\n      jump\t// out\n        /* \"#utility.yul\":8259:8678   */\n    tag_44:\n        /* \"#utility.yul\":8425:8429   */\n      0x00\n        /* \"#utility.yul\":8463:8465   */\n      0x20\n        /* \"#utility.yul\":8452:8461   */\n      dup3\n        /* \"#utility.yul\":8448:8466   */\n      add\n        /* \"#utility.yul\":8440:8466   */\n      swap1\n      pop\n        /* \"#utility.yul\":8512:8521   */\n      dup2\n        /* \"#utility.yul\":8506:8510   */\n      dup2\n        /* \"#utility.yul\":8502:8522   */\n      sub\n        /* \"#utility.yul\":8498:8499   */\n      0x00\n        /* \"#utility.yul\":8487:8496   */\n      dup4\n        /* \"#utility.yul\":8483:8500   */\n      add\n        /* \"#utility.yul\":8476:8523   */\n      mstore\n        /* \"#utility.yul\":8540:8671   */\n      tag_223\n        /* \"#utility.yul\":8666:8670   */\n      dup2\n        /* \"#utility.yul\":8540:8671   */\n      tag_149\n      jump\t// in\n    tag_223:\n        /* \"#utility.yul\":8532:8671   */\n      swap1\n      pop\n        /* \"#utility.yul\":8259:8678   */\n      swap2\n      swap1\n      pop\n      jump\t// out\n        /* \"#utility.yul\":8684:8861   */\n    tag_150:\n        /* \"#utility.yul\":8824:8853   */\n      0x536f6d65206d656d62657273206e6f7420616464656420796574210000000000\n        /* \"#utility.yul\":8820:8821   */\n      0x00\n        /* \"#utility.yul\":8812:8818   */\n      dup3\n        /* \"#utility.yul\":8808:8822   */\n      add\n        /* \"#utility.yul\":8801:8854   */\n      mstore\n        /* \"#utility.yul\":8684:8861   */\n      pop\n      jump\t// out\n        /* \"#utility.yul\":8867:9233   */\n    tag_151:\n        /* \"#utility.yul\":9009:9012   */\n      0x00\n        /* \"#utility.yul\":9030:9097   */\n      tag_226\n        /* \"#utility.yul\":9094:9096   */\n      0x1b\n        /* \"#utility.yul\":9089:9092   */\n      dup4\n        /* \"#utility.yul\":9030:9097   */\n      tag_133\n      jump\t// in\n    tag_226:\n        /* \"#utility.yul\":9023:9097   */\n      swap2\n      pop\n        /* \"#utility.yul\":9106:9199   */\n      tag_227\n        /* \"#utility.yul\":9195:9198   */\n      dup3\n        /* \"#utility.yul\":9106:9199   */\n      tag_150\n      jump\t// in\n    tag_227:\n        /* \"#utility.yul\":9224:9226   */\n      0x20\n        /* \"#utility.yul\":9219:9222   */\n      dup3\n        /* \"#utility.yul\":9215:9227   */\n      add\n        /* \"#utility.yul\":9208:9227   */\n      swap1\n      pop\n        /* \"#utility.yul\":8867:9233   */\n      swap2\n      swap1\n      pop\n      jump\t// out\n        /* \"#utility.yul\":9239:9658   */\n    tag_54:\n        /* \"#utility.yul\":9405:9409   */\n      0x00\n        /* \"#utility.yul\":9443:9445   */\n      0x20\n        /* \"#utility.yul\":9432:9441   */\n      dup3\n        /* \"#utility.yul\":9428:9446   */\n      add\n        /* \"#utility.yul\":9420:9446   */\n      swap1\n      pop\n        /* \"#utility.yul\":9492:9501   */\n      dup2\n        /* \"#utility.yul\":9486:9490   */\n      dup2\n        /* \"#utility.yul\":9482:9502   */\n      sub\n        /* \"#utility.yul\":9478:9479   */\n      0x00\n        /* \"#utility.yul\":9467:9476   */\n      dup4\n        /* \"#utility.yul\":9463:9480   */\n      add\n        /* \"#utility.yul\":9456:9503   */\n      mstore\n        /* \"#utility.yul\":9520:9651   */\n      tag_229\n        /* \"#utility.yul\":9646:9650   */\n      dup2\n        /* \"#utility.yul\":9520:9651   */\n      tag_151\n      jump\t// in\n    tag_229:\n        /* \"#utility.yul\":9512:9651   */\n      swap1\n      pop\n        /* \"#utility.yul\":9239:9658   */\n      swap2\n      swap1\n      pop\n      jump\t// out\n        /* \"#utility.yul\":9664:9845   */\n    tag_152:\n        /* \"#utility.yul\":9804:9837   */\n      0x416c6c206d656d62657273206d757374207061696420696e20726f756e642100\n        /* \"#utility.yul\":9800:9801   */\n      0x00\n        /* \"#utility.yul\":9792:9798   */\n      dup3\n        /* \"#utility.yul\":9788:9802   */\n      add\n        /* \"#utility.yul\":9781:9838   */\n      mstore\n        /* \"#utility.yul\":9664:9845   */\n      pop\n      jump\t// out\n        /* \"#utility.yul\":9851:10217   */\n    tag_153:\n        /* \"#utility.yul\":9993:9996   */\n      0x00\n        /* \"#utility.yul\":10014:10081   */\n      tag_232\n        /* \"#utility.yul\":10078:10080   */\n      0x1f\n        /* \"#utility.yul\":10073:10076   */\n      dup4\n        /* \"#utility.yul\":10014:10081   */\n      tag_133\n      jump\t// in\n    tag_232:\n        /* \"#utility.yul\":10007:10081   */\n      swap2\n      pop\n        /* \"#utility.yul\":10090:10183   */\n      tag_233\n        /* \"#utility.yul\":10179:10182   */\n      dup3\n        /* \"#utility.yul\":10090:10183   */\n      tag_152\n      jump\t// in\n    tag_233:\n        /* \"#utility.yul\":10208:10210   */\n      0x20\n        /* \"#utility.yul\":10203:10206   */\n      dup3\n        /* \"#utility.yul\":10199:10211   */\n      add\n        /* \"#utility.yul\":10192:10211   */\n      swap1\n      pop\n        /* \"#utility.yul\":9851:10217   */\n      swap2\n      swap1\n      pop\n      jump\t// out\n        /* \"#utility.yul\":10223:10642   */\n    tag_59:\n        /* \"#utility.yul\":10389:10393   */\n      0x00\n        /* \"#utility.yul\":10427:10429   */\n      0x20\n        /* \"#utility.yul\":10416:10425   */\n      dup3\n        /* \"#utility.yul\":10412:10430   */\n      add\n        /* \"#utility.yul\":10404:10430   */\n      swap1\n      pop\n        /* \"#utility.yul\":10476:10485   */\n      dup2\n        /* \"#utility.yul\":10470:10474   */\n      dup2\n        /* \"#utility.yul\":10466:10486   */\n      sub\n        /* \"#utility.yul\":10462:10463   */\n      0x00\n        /* \"#utility.yul\":10451:10460   */\n      dup4\n        /* \"#utility.yul\":10447:10464   */\n      add\n        /* \"#utility.yul\":10440:10487   */\n      mstore\n        /* \"#utility.yul\":10504:10635   */\n      tag_235\n        /* \"#utility.yul\":10630:10634   */\n      dup2\n        /* \"#utility.yul\":10504:10635   */\n      tag_153\n      jump\t// in\n    tag_235:\n        /* \"#utility.yul\":10496:10635   */\n      swap1\n      pop\n        /* \"#utility.yul\":10223:10642   */\n      swap2\n      swap1\n      pop\n      jump\t// out\n        /* \"#utility.yul\":10648:10828   */\n    tag_67:\n        /* \"#utility.yul\":10696:10773   */\n      0x4e487b7100000000000000000000000000000000000000000000000000000000\n        /* \"#utility.yul\":10693:10694   */\n      0x00\n        /* \"#utility.yul\":10686:10774   */\n      mstore\n        /* \"#utility.yul\":10793:10797   */\n      0x32\n        /* \"#utility.yul\":10790:10791   */\n      0x04\n        /* \"#utility.yul\":10783:10798   */\n      mstore\n        /* \"#utility.yul\":10817:10821   */\n      0x24\n        /* \"#utility.yul\":10814:10815   */\n      0x00\n        /* \"#utility.yul\":10807:10822   */\n      revert\n        /* \"#utility.yul\":10834:11001   */\n    tag_75:\n        /* \"#utility.yul\":10871:10874   */\n      0x00\n        /* \"#utility.yul\":10894:10916   */\n      tag_238\n        /* \"#utility.yul\":10910:10915   */\n      dup3\n        /* \"#utility.yul\":10894:10916   */\n      tag_136\n      jump\t// in\n    tag_238:\n        /* \"#utility.yul\":10885:10916   */\n      swap2\n      pop\n        /* \"#utility.yul\":10938:10942   */\n      0xff\n        /* \"#utility.yul\":10931:10936   */\n      dup3\n        /* \"#utility.yul\":10928:10943   */\n      sub\n        /* \"#utility.yul\":10925:10966   */\n      tag_239\n      jumpi\n        /* \"#utility.yul\":10946:10964   */\n      tag_240\n      tag_137\n      jump\t// in\n    tag_240:\n        /* \"#utility.yul\":10925:10966   */\n    tag_239:\n        /* \"#utility.yul\":10993:10994   */\n      0x01\n        /* \"#utility.yul\":10986:10991   */\n      dup3\n        /* \"#utility.yul\":10982:10995   */\n      add\n        /* \"#utility.yul\":10975:10995   */\n      swap1\n      pop\n        /* \"#utility.yul\":10834:11001   */\n      swap2\n      swap1\n      pop\n      jump\t// out\n        /* \"#utility.yul\":11007:11183   */\n    tag_154:\n        /* \"#utility.yul\":11147:11175   */\n      0x536f6d657468696e67206261642069732068617070656e656421000000000000\n        /* \"#utility.yul\":11143:11144   */\n      0x00\n        /* \"#utility.yul\":11135:11141   */\n      dup3\n        /* \"#utility.yul\":11131:11145   */\n      add\n        /* \"#utility.yul\":11124:11176   */\n      mstore\n        /* \"#utility.yul\":11007:11183   */\n      pop\n      jump\t// out\n        /* \"#utility.yul\":11189:11555   */\n    tag_155:\n        /* \"#utility.yul\":11331:11334   */\n      0x00\n        /* \"#utility.yul\":11352:11419   */\n      tag_243\n        /* \"#utility.yul\":11416:11418   */\n      0x1a\n        /* \"#utility.yul\":11411:11414   */\n      dup4\n        /* \"#utility.yul\":11352:11419   */\n      tag_133\n      jump\t// in\n    tag_243:\n        /* \"#utility.yul\":11345:11419   */\n      swap2\n      pop\n        /* \"#utility.yul\":11428:11521   */\n      tag_244\n        /* \"#utility.yul\":11517:11520   */\n      dup3\n        /* \"#utility.yul\":11428:11521   */\n      tag_154\n      jump\t// in\n    tag_244:\n        /* \"#utility.yul\":11546:11548   */\n      0x20\n        /* \"#utility.yul\":11541:11544   */\n      dup3\n        /* \"#utility.yul\":11537:11549   */\n      add\n        /* \"#utility.yul\":11530:11549   */\n      swap1\n      pop\n        /* \"#utility.yul\":11189:11555   */\n      swap2\n      swap1\n      pop\n      jump\t// out\n        /* \"#utility.yul\":11561:11980   */\n    tag_93:\n        /* \"#utility.yul\":11727:11731   */\n      0x00\n        /* \"#utility.yul\":11765:11767   */\n      0x20\n        /* \"#utility.yul\":11754:11763   */\n      dup3\n        /* \"#utility.yul\":11750:11768   */\n      add\n        /* \"#utility.yul\":11742:11768   */\n      swap1\n      pop\n        /* \"#utility.yul\":11814:11823   */\n      dup2\n        /* \"#utility.yul\":11808:11812   */\n      dup2\n        /* \"#utility.yul\":11804:11824   */\n      sub\n        /* \"#utility.yul\":11800:11801   */\n      0x00\n        /* \"#utility.yul\":11789:11798   */\n      dup4\n        /* \"#utility.yul\":11785:11802   */\n      add\n        /* \"#utility.yul\":11778:11825   */\n      mstore\n        /* \"#utility.yul\":11842:11973   */\n      tag_246\n        /* \"#utility.yul\":11968:11972   */\n      dup2\n        /* \"#utility.yul\":11842:11973   */\n      tag_155\n      jump\t// in\n    tag_246:\n        /* \"#utility.yul\":11834:11973   */\n      swap1\n      pop\n        /* \"#utility.yul\":11561:11980   */\n      swap2\n      swap1\n      pop\n      jump\t// out\n        /* \"#utility.yul\":11986:12063   */\n    tag_156:\n        /* \"#utility.yul\":12023:12030   */\n      0x00\n        /* \"#utility.yul\":12052:12057   */\n      dup2\n        /* \"#utility.yul\":12041:12057   */\n      swap1\n      pop\n        /* \"#utility.yul\":11986:12063   */\n      swap2\n      swap1\n      pop\n      jump\t// out\n        /* \"#utility.yul\":12069:12260   */\n    tag_118:\n        /* \"#utility.yul\":12109:12112   */\n      0x00\n        /* \"#utility.yul\":12128:12148   */\n      tag_249\n        /* \"#utility.yul\":12146:12147   */\n      dup3\n        /* \"#utility.yul\":12128:12148   */\n      tag_156\n      jump\t// in\n    tag_249:\n        /* \"#utility.yul\":12123:12148   */\n      swap2\n      pop\n        /* \"#utility.yul\":12162:12182   */\n      tag_250\n        /* \"#utility.yul\":12180:12181   */\n      dup4\n        /* \"#utility.yul\":12162:12182   */\n      tag_156\n      jump\t// in\n    tag_250:\n        /* \"#utility.yul\":12157:12182   */\n      swap3\n      pop\n        /* \"#utility.yul\":12205:12206   */\n      dup3\n        /* \"#utility.yul\":12202:12203   */\n      dup3\n        /* \"#utility.yul\":12198:12207   */\n      add\n        /* \"#utility.yul\":12191:12207   */\n      swap1\n      pop\n        /* \"#utility.yul\":12226:12229   */\n      dup1\n        /* \"#utility.yul\":12223:12224   */\n      dup3\n        /* \"#utility.yul\":12220:12230   */\n      gt\n        /* \"#utility.yul\":12217:12253   */\n      iszero\n      tag_251\n      jumpi\n        /* \"#utility.yul\":12233:12251   */\n      tag_252\n      tag_137\n      jump\t// in\n    tag_252:\n        /* \"#utility.yul\":12217:12253   */\n    tag_251:\n        /* \"#utility.yul\":12069:12260   */\n      swap3\n      swap2\n      pop\n      pop\n      jump\t// out\n        /* \"#utility.yul\":12266:12446   */\n    tag_157:\n        /* \"#utility.yul\":12314:12391   */\n      0x4e487b7100000000000000000000000000000000000000000000000000000000\n        /* \"#utility.yul\":12311:12312   */\n      0x00\n        /* \"#utility.yul\":12304:12392   */\n      mstore\n        /* \"#utility.yul\":12411:12415   */\n      0x12\n        /* \"#utility.yul\":12408:12409   */\n      0x04\n        /* \"#utility.yul\":12401:12416   */\n      mstore\n        /* \"#utility.yul\":12435:12439   */\n      0x24\n        /* \"#utility.yul\":12432:12433   */\n      0x00\n        /* \"#utility.yul\":12425:12440   */\n      revert\n        /* \"#utility.yul\":12452:12628   */\n    tag_120:\n        /* \"#utility.yul\":12484:12485   */\n      0x00\n        /* \"#utility.yul\":12501:12521   */\n      tag_255\n        /* \"#utility.yul\":12519:12520   */\n      dup3\n        /* \"#utility.yul\":12501:12521   */\n      tag_156\n      jump\t// in\n    tag_255:\n        /* \"#utility.yul\":12496:12521   */\n      swap2\n      pop\n        /* \"#utility.yul\":12535:12555   */\n      tag_256\n        /* \"#utility.yul\":12553:12554   */\n      dup4\n        /* \"#utility.yul\":12535:12555   */\n      tag_156\n      jump\t// in\n    tag_256:\n        /* \"#utility.yul\":12530:12555   */\n      swap3\n      pop\n        /* \"#utility.yul\":12574:12575   */\n      dup3\n        /* \"#utility.yul\":12564:12599   */\n      tag_257\n      jumpi\n        /* \"#utility.yul\":12579:12597   */\n      tag_258\n      tag_157\n      jump\t// in\n    tag_258:\n        /* \"#utility.yul\":12564:12599   */\n    tag_257:\n        /* \"#utility.yul\":12620:12621   */\n      dup3\n        /* \"#utility.yul\":12617:12618   */\n      dup3\n        /* \"#utility.yul\":12613:12622   */\n      mod\n        /* \"#utility.yul\":12608:12622   */\n      swap1\n      pop\n        /* \"#utility.yul\":12452:12628   */\n      swap3\n      swap2\n      pop\n      pop\n      jump\t// out\n\n    auxdata: 0xa264697066735822122057631fd4d4eb26fc1afcd6df9ac263273e8c03d21b48db2e4fb9d16f60095b0764736f6c63430008120033\n}\n",
				"bytecode": {
					"linkReferences": {},
					"object": "60806040523480156200001157600080fd5b50604051620014643803806200146483398181016040528101906200003791906200019d565b60018260ff161162000080576040517f08c379a0000000000000000000000000000000000000000000000000000000008152600401620000779062000245565b60405180910390fd5b816001806101000a81548160ff021916908360ff1602179055508060008190555033600160036101000a81548173ffffffffffffffffffffffffffffffffffffffff021916908373ffffffffffffffffffffffffffffffffffffffff16021790555060018060026101000a81548160ff02191690831515021790555060018060006101000a81548160ff021916908360ff160217905550505062000267565b600080fd5b600060ff82169050919050565b6200013c8162000124565b81146200014857600080fd5b50565b6000815190506200015c8162000131565b92915050565b6000819050919050565b620001778162000162565b81146200018357600080fd5b50565b60008151905062000197816200016c565b92915050565b60008060408385031215620001b757620001b66200011f565b5b6000620001c7858286016200014b565b9250506020620001da8582860162000186565b9150509250929050565b600082825260208201905092915050565b7f46756e64206d757374206174206c656173742032206d656d6265722100000000600082015250565b60006200022d601c83620001e4565b91506200023a82620001f5565b602082019050919050565b6000602082019050818103600083015262000260816200021e565b9050919050565b6111ed80620002776000396000f3fe6080604052600436106100345760003560e01c806399c571e714610039578063ca6d56dc14610043578063cd38aa871461006c575b600080fd5b610041610083565b005b34801561004f57600080fd5b5061006a60048036038101906100659190610bda565b610265565b005b34801561007857600080fd5b50610081610457565b005b60011515610090336108ac565b1515146100d2576040517f08c379a00000000000000000000000000000000000000000000000000000000081526004016100c990610c64565b60405180910390fd5b60001515600460003373ffffffffffffffffffffffffffffffffffffffff1673ffffffffffffffffffffffffffffffffffffffff168152602001908152602001600020600060018060009054906101000a900460ff166101329190610cc0565b60ff1660ff16815260200190815260200160002060009054906101000a900460ff16151514610196576040517f08c379a000000000000000000000000000000000000000000000000000000000815260040161018d90610d41565b60405180910390fd5b60005434146101da576040517f08c379a00000000000000000000000000000000000000000000000000000000081526004016101d190610dad565b60405180910390fd5b6001600460003373ffffffffffffffffffffffffffffffffffffffff1673ffffffffffffffffffffffffffffffffffffffff168152602001908152602001600020600060018060009054906101000a900460ff166102389190610cc0565b60ff1660ff16815260200190815260200160002060006101000a81548160ff021916908315150217905550565b600160039054906101000a900473ffffffffffffffffffffffffffffffffffffffff1673ffffffffffffffffffffffffffffffffffffffff163373ffffffffffffffffffffffffffffffffffffffff16146102f5576040517f08c379a00000000000000000000000000000000000000000000000000000000081526004016102ec90610e19565b60405180910390fd5b60011515600160029054906101000a900460ff1615151461034b576040517f08c379a000000000000000000000000000000000000000000000000000000000815260040161034290610e85565b60405180910390fd5b60001515610358826108ac565b15151461039a576040517f08c379a000000000000000000000000000000000000000000000000000000000815260040161039190610ef1565b60405180910390fd5b60018054906101000a900460ff1660ff16600280549050106103f1576040517f08c379a00000000000000000000000000000000000000000000000000000000081526004016103e890610f5d565b60405180910390fd5b6002819080600181540180825580915050600190039060005260206000200160009091909190916101000a81548173ffffffffffffffffffffffffffffffffffffffff021916908373ffffffffffffffffffffffffffffffffffffffff16021790555050565b600160039054906101000a900473ffffffffffffffffffffffffffffffffffffffff1673ffffffffffffffffffffffffffffffffffffffff163373ffffffffffffffffffffffffffffffffffffffff16146104e7576040517f08c379a00000000000000000000000000000000000000000000000000000000081526004016104de90610e19565b60405180910390fd5b60011515600160029054906101000a900460ff1615151461053d576040517f08c379a000000000000000000000000000000000000000000000000000000000815260040161053490610e85565b60405180910390fd5b60018054906101000a900460ff1660ff1660028054905014610594576040517f08c379a000000000000000000000000000000000000000000000000000000000815260040161058b90610fc9565b60405180910390fd5b600115156105a0610960565b1515146105e2576040517f08c379a00000000000000000000000000000000000000000000000000000000081526004016105d990611035565b60405180910390fd5b600360006105f09190610b39565b60005b6002805490508160ff1610156107535760006005600060028460ff16815481106106205761061f611055565b5b9060005260206000200160009054906101000a900473ffffffffffffffffffffffffffffffffffffffff1673ffffffffffffffffffffffffffffffffffffffff1673ffffffffffffffffffffffffffffffffffffffff16815260200190815260200160002060009054906101000a900460ff1660ff160361074057600360028260ff16815481106106b4576106b3611055565b5b9060005260206000200160009054906101000a900473ffffffffffffffffffffffffffffffffffffffff169080600181540180825580915050600190039060005260206000200160009091909190916101000a81548173ffffffffffffffffffffffffffffffffffffffff021916908373ffffffffffffffffffffffffffffffffffffffff1602179055505b808061074b90611084565b9150506105f3565b506001600380549050036107c9576107a9600360008154811061077957610778611055565b5b9060005260206000200160009054906101000a900473ffffffffffffffffffffffffffffffffffffffff16610a68565b6000600160026101000a81548160ff0219169083151502179055506108aa565b6001600380549050111561086e5760006107e7600380549050610b19565b905061083060028281548110610800576107ff611055565b5b9060005260206000200160009054906101000a900473ffffffffffffffffffffffffffffffffffffffff16610a68565b6001600081819054906101000a900460ff168092919061084f90611084565b91906101000a81548160ff021916908360ff16021790555050506108a9565b6040517f08c379a00000000000000000000000000000000000000000000000000000000081526004016108a0906110f9565b60405180910390fd5b5b565b600080600090505b6002805490508160ff161015610955578273ffffffffffffffffffffffffffffffffffffffff1660028260ff16815481106108f2576108f1611055565b5b9060005260206000200160009054906101000a900473ffffffffffffffffffffffffffffffffffffffff1673ffffffffffffffffffffffffffffffffffffffff160361094257600191505061095b565b808061094d90611084565b9150506108b4565b50600090505b919050565b600080600090505b6002805490508160ff161015610a5f57600015156004600060028460ff168154811061099757610996611055565b5b9060005260206000200160009054906101000a900473ffffffffffffffffffffffffffffffffffffffff1673ffffffffffffffffffffffffffffffffffffffff1673ffffffffffffffffffffffffffffffffffffffff168152602001908152602001600020600060018060009054906101000a900460ff16610a199190610cc0565b60ff1660ff16815260200190815260200160002060009054906101000a900460ff16151503610a4c576000915050610a65565b8080610a5790611084565b915050610968565b50600190505b90565b600160009054906101000a900460ff16600560008373ffffffffffffffffffffffffffffffffffffffff1673ffffffffffffffffffffffffffffffffffffffff16815260200190815260200160002060006101000a81548160ff021916908360ff1602179055508073ffffffffffffffffffffffffffffffffffffffff166108fc479081150290604051600060405180830381858888f19350505050158015610b15573d6000803e3d6000fd5b5050565b6000814244610b289190611123565b610b329190611186565b9050919050565b5080546000825590600052602060002090810190610b579190610b5a565b50565b5b80821115610b73576000816000905550600101610b5b565b5090565b600080fd5b600073ffffffffffffffffffffffffffffffffffffffff82169050919050565b6000610ba782610b7c565b9050919050565b610bb781610b9c565b8114610bc257600080fd5b50565b600081359050610bd481610bae565b92915050565b600060208284031215610bf057610bef610b77565b5b6000610bfe84828501610bc5565b91505092915050565b600082825260208201905092915050565b7f4e6f742061206d656d6265722100000000000000000000000000000000000000600082015250565b6000610c4e600d83610c07565b9150610c5982610c18565b602082019050919050565b60006020820190508181036000830152610c7d81610c41565b9050919050565b600060ff82169050919050565b7f4e487b7100000000000000000000000000000000000000000000000000000000600052601160045260246000fd5b6000610ccb82610c84565b9150610cd683610c84565b9250828203905060ff811115610cef57610cee610c91565b5b92915050565b7f416c7265616479207061696420696e207468697320726f756e64000000000000600082015250565b6000610d2b601a83610c07565b9150610d3682610cf5565b602082019050919050565b60006020820190508181036000830152610d5a81610d1e565b9050919050565b7f5061796d656e742076616c7565206973206e6f742076616c6964210000000000600082015250565b6000610d97601b83610c07565b9150610da282610d61565b602082019050919050565b60006020820190508181036000830152610dc681610d8a565b9050919050565b7f53656e646572206e6f7420617574686f72697a65640000000000000000000000600082015250565b6000610e03601583610c07565b9150610e0e82610dcd565b602082019050919050565b60006020820190508181036000830152610e3281610df6565b9050919050565b7f46756e6420697320636c6f736564210000000000000000000000000000000000600082015250565b6000610e6f600f83610c07565b9150610e7a82610e39565b602082019050919050565b60006020820190508181036000830152610e9e81610e62565b9050919050565b7f416c726561647920616464656421000000000000000000000000000000000000600082015250565b6000610edb600e83610c07565b9150610ee682610ea5565b602082019050919050565b60006020820190508181036000830152610f0a81610ece565b9050919050565b7f4e6f20656d707479207370616365210000000000000000000000000000000000600082015250565b6000610f47600f83610c07565b9150610f5282610f11565b602082019050919050565b60006020820190508181036000830152610f7681610f3a565b9050919050565b7f536f6d65206d656d62657273206e6f7420616464656420796574210000000000600082015250565b6000610fb3601b83610c07565b9150610fbe82610f7d565b602082019050919050565b60006020820190508181036000830152610fe281610fa6565b9050919050565b7f416c6c206d656d62657273206d757374207061696420696e20726f756e642100600082015250565b600061101f601f83610c07565b915061102a82610fe9565b602082019050919050565b6000602082019050818103600083015261104e81611012565b9050919050565b7f4e487b7100000000000000000000000000000000000000000000000000000000600052603260045260246000fd5b600061108f82610c84565b915060ff82036110a2576110a1610c91565b5b600182019050919050565b7f536f6d657468696e67206261642069732068617070656e656421000000000000600082015250565b60006110e3601a83610c07565b91506110ee826110ad565b602082019050919050565b60006020820190508181036000830152611112816110d6565b9050919050565b6000819050919050565b600061112e82611119565b915061113983611119565b925082820190508082111561115157611150610c91565b5b92915050565b7f4e487b7100000000000000000000000000000000000000000000000000000000600052601260045260246000fd5b600061119182611119565b915061119c83611119565b9250826111ac576111ab611157565b5b82820690509291505056fea264697066735822122057631fd4d4eb26fc1afcd6df9ac263273e8c03d21b48db2e4fb9d16f60095b0764736f6c63430008120033",
					"opcodes": "PUSH1 0x80 PUSH1 0x40 MSTORE CALLVALUE DUP1 ISZERO PUSH3 0x11 JUMPI PUSH1 0x0 DUP1 REVERT JUMPDEST POP PUSH1 0x40 MLOAD PUSH3 0x1464 CODESIZE SUB DUP1 PUSH3 0x1464 DUP4 CODECOPY DUP2 DUP2 ADD PUSH1 0x40 MSTORE DUP2 ADD SWAP1 PUSH3 0x37 SWAP2 SWAP1 PUSH3 0x19D JUMP JUMPDEST PUSH1 0x1 DUP3 PUSH1 0xFF AND GT PUSH3 0x80 JUMPI PUSH1 0x40 MLOAD PUSH32 0x8C379A000000000000000000000000000000000000000000000000000000000 DUP2 MSTORE PUSH1 0x4 ADD PUSH3 0x77 SWAP1 PUSH3 0x245 JUMP JUMPDEST PUSH1 0x40 MLOAD DUP1 SWAP2 SUB SWAP1 REVERT JUMPDEST DUP2 PUSH1 0x1 DUP1 PUSH2 0x100 EXP DUP2 SLOAD DUP2 PUSH1 0xFF MUL NOT AND SWAP1 DUP4 PUSH1 0xFF AND MUL OR SWAP1 SSTORE POP DUP1 PUSH1 0x0 DUP2 SWAP1 SSTORE POP CALLER PUSH1 0x1 PUSH1 0x3 PUSH2 0x100 EXP DUP2 SLOAD DUP2 PUSH20 0xFFFFFFFFFFFFFFFFFFFFFFFFFFFFFFFFFFFFFFFF MUL NOT AND SWAP1 DUP4 PUSH20 0xFFFFFFFFFFFFFFFFFFFFFFFFFFFFFFFFFFFFFFFF AND MUL OR SWAP1 SSTORE POP PUSH1 0x1 DUP1 PUSH1 0x2 PUSH2 0x100 EXP DUP2 SLOAD DUP2 PUSH1 0xFF MUL NOT AND SWAP1 DUP4 ISZERO ISZERO MUL OR SWAP1 SSTORE POP PUSH1 0x1 DUP1 PUSH1 0x0 PUSH2 0x100 EXP DUP2 SLOAD DUP2 PUSH1 0xFF MUL NOT AND SWAP1 DUP4 PUSH1 0xFF AND MUL OR SWAP1 SSTORE POP POP POP PUSH3 0x267 JUMP JUMPDEST PUSH1 0x0 DUP1 REVERT JUMPDEST PUSH1 0x0 PUSH1 0xFF DUP3 AND SWAP1 POP SWAP2 SWAP1 POP JUMP JUMPDEST PUSH3 0x13C DUP2 PUSH3 0x124 JUMP JUMPDEST DUP2 EQ PUSH3 0x148 JUMPI PUSH1 0x0 DUP1 REVERT JUMPDEST POP JUMP JUMPDEST PUSH1 0x0 DUP2 MLOAD SWAP1 POP PUSH3 0x15C DUP2 PUSH3 0x131 JUMP JUMPDEST SWAP3 SWAP2 POP POP JUMP JUMPDEST PUSH1 0x0 DUP2 SWAP1 POP SWAP2 SWAP1 POP JUMP JUMPDEST PUSH3 0x177 DUP2 PUSH3 0x162 JUMP JUMPDEST DUP2 EQ PUSH3 0x183 JUMPI PUSH1 0x0 DUP1 REVERT JUMPDEST POP JUMP JUMPDEST PUSH1 0x0 DUP2 MLOAD SWAP1 POP PUSH3 0x197 DUP2 PUSH3 0x16C JUMP JUMPDEST SWAP3 SWAP2 POP POP JUMP JUMPDEST PUSH1 0x0 DUP1 PUSH1 0x40 DUP4 DUP6 SUB SLT ISZERO PUSH3 0x1B7 JUMPI PUSH3 0x1B6 PUSH3 0x11F JUMP JUMPDEST JUMPDEST PUSH1 0x0 PUSH3 0x1C7 DUP6 DUP3 DUP7 ADD PUSH3 0x14B JUMP JUMPDEST SWAP3 POP POP PUSH1 0x20 PUSH3 0x1DA DUP6 DUP3 DUP7 ADD PUSH3 0x186 JUMP JUMPDEST SWAP2 POP POP SWAP3 POP SWAP3 SWAP1 POP JUMP JUMPDEST PUSH1 0x0 DUP3 DUP3 MSTORE PUSH1 0x20 DUP3 ADD SWAP1 POP SWAP3 SWAP2 POP POP JUMP JUMPDEST PUSH32 0x46756E64206D757374206174206C656173742032206D656D6265722100000000 PUSH1 0x0 DUP3 ADD MSTORE POP JUMP JUMPDEST PUSH1 0x0 PUSH3 0x22D PUSH1 0x1C DUP4 PUSH3 0x1E4 JUMP JUMPDEST SWAP2 POP PUSH3 0x23A DUP3 PUSH3 0x1F5 JUMP JUMPDEST PUSH1 0x20 DUP3 ADD SWAP1 POP SWAP2 SWAP1 POP JUMP JUMPDEST PUSH1 0x0 PUSH1 0x20 DUP3 ADD SWAP1 POP DUP2 DUP2 SUB PUSH1 0x0 DUP4 ADD MSTORE PUSH3 0x260 DUP2 PUSH3 0x21E JUMP JUMPDEST SWAP1 POP SWAP2 SWAP1 POP JUMP JUMPDEST PUSH2 0x11ED DUP1 PUSH3 0x277 PUSH1 0x0 CODECOPY PUSH1 0x0 RETURN INVALID PUSH1 0x80 PUSH1 0x40 MSTORE PUSH1 0x4 CALLDATASIZE LT PUSH2 0x34 JUMPI PUSH1 0x0 CALLDATALOAD PUSH1 0xE0 SHR DUP1 PUSH4 0x99C571E7 EQ PUSH2 0x39 JUMPI DUP1 PUSH4 0xCA6D56DC EQ PUSH2 0x43 JUMPI DUP1 PUSH4 0xCD38AA87 EQ PUSH2 0x6C JUMPI JUMPDEST PUSH1 0x0 DUP1 REVERT JUMPDEST PUSH2 0x41 PUSH2 0x83 JUMP JUMPDEST STOP JUMPDEST CALLVALUE DUP1 ISZERO PUSH2 0x4F JUMPI PUSH1 0x0 DUP1 REVERT JUMPDEST POP PUSH2 0x6A PUSH1 0x4 DUP1 CALLDATASIZE SUB DUP2 ADD SWAP1 PUSH2 0x65 SWAP2 SWAP1 PUSH2 0xBDA JUMP JUMPDEST PUSH2 0x265 JUMP JUMPDEST STOP JUMPDEST CALLVALUE DUP1 ISZERO PUSH2 0x78 JUMPI PUSH1 0x0 DUP1 REVERT JUMPDEST POP PUSH2 0x81 PUSH2 0x457 JUMP JUMPDEST STOP JUMPDEST PUSH1 0x1 ISZERO ISZERO PUSH2 0x90 CALLER PUSH2 0x8AC JUMP JUMPDEST ISZERO ISZERO EQ PUSH2 0xD2 JUMPI PUSH1 0x40 MLOAD PUSH32 0x8C379A000000000000000000000000000000000000000000000000000000000 DUP2 MSTORE PUSH1 0x4 ADD PUSH2 0xC9 SWAP1 PUSH2 0xC64 JUMP JUMPDEST PUSH1 0x40 MLOAD DUP1 SWAP2 SUB SWAP1 REVERT JUMPDEST PUSH1 0x0 ISZERO ISZERO PUSH1 0x4 PUSH1 0x0 CALLER PUSH20 0xFFFFFFFFFFFFFFFFFFFFFFFFFFFFFFFFFFFFFFFF AND PUSH20 0xFFFFFFFFFFFFFFFFFFFFFFFFFFFFFFFFFFFFFFFF AND DUP2 MSTORE PUSH1 0x20 ADD SWAP1 DUP2 MSTORE PUSH1 0x20 ADD PUSH1 0x0 KECCAK256 PUSH1 0x0 PUSH1 0x1 DUP1 PUSH1 0x0 SWAP1 SLOAD SWAP1 PUSH2 0x100 EXP SWAP1 DIV PUSH1 0xFF AND PUSH2 0x132 SWAP2 SWAP1 PUSH2 0xCC0 JUMP JUMPDEST PUSH1 0xFF AND PUSH1 0xFF AND DUP2 MSTORE PUSH1 0x20 ADD SWAP1 DUP2 MSTORE PUSH1 0x20 ADD PUSH1 0x0 KECCAK256 PUSH1 0x0 SWAP1 SLOAD SWAP1 PUSH2 0x100 EXP SWAP1 DIV PUSH1 0xFF AND ISZERO ISZERO EQ PUSH2 0x196 JUMPI PUSH1 0x40 MLOAD PUSH32 0x8C379A000000000000000000000000000000000000000000000000000000000 DUP2 MSTORE PUSH1 0x4 ADD PUSH2 0x18D SWAP1 PUSH2 0xD41 JUMP JUMPDEST PUSH1 0x40 MLOAD DUP1 SWAP2 SUB SWAP1 REVERT JUMPDEST PUSH1 0x0 SLOAD CALLVALUE EQ PUSH2 0x1DA JUMPI PUSH1 0x40 MLOAD PUSH32 0x8C379A000000000000000000000000000000000000000000000000000000000 DUP2 MSTORE PUSH1 0x4 ADD PUSH2 0x1D1 SWAP1 PUSH2 0xDAD JUMP JUMPDEST PUSH1 0x40 MLOAD DUP1 SWAP2 SUB SWAP1 REVERT JUMPDEST PUSH1 0x1 PUSH1 0x4 PUSH1 0x0 CALLER PUSH20 0xFFFFFFFFFFFFFFFFFFFFFFFFFFFFFFFFFFFFFFFF AND PUSH20 0xFFFFFFFFFFFFFFFFFFFFFFFFFFFFFFFFFFFFFFFF AND DUP2 MSTORE PUSH1 0x20 ADD SWAP1 DUP2 MSTORE PUSH1 0x20 ADD PUSH1 0x0 KECCAK256 PUSH1 0x0 PUSH1 0x1 DUP1 PUSH1 0x0 SWAP1 SLOAD SWAP1 PUSH2 0x100 EXP SWAP1 DIV PUSH1 0xFF AND PUSH2 0x238 SWAP2 SWAP1 PUSH2 0xCC0 JUMP JUMPDEST PUSH1 0xFF AND PUSH1 0xFF AND DUP2 MSTORE PUSH1 0x20 ADD SWAP1 DUP2 MSTORE PUSH1 0x20 ADD PUSH1 0x0 KECCAK256 PUSH1 0x0 PUSH2 0x100 EXP DUP2 SLOAD DUP2 PUSH1 0xFF MUL NOT AND SWAP1 DUP4 ISZERO ISZERO MUL OR SWAP1 SSTORE POP JUMP JUMPDEST PUSH1 0x1 PUSH1 0x3 SWAP1 SLOAD SWAP1 PUSH2 0x100 EXP SWAP1 DIV PUSH20 0xFFFFFFFFFFFFFFFFFFFFFFFFFFFFFFFFFFFFFFFF AND PUSH20 0xFFFFFFFFFFFFFFFFFFFFFFFFFFFFFFFFFFFFFFFF AND CALLER PUSH20 0xFFFFFFFFFFFFFFFFFFFFFFFFFFFFFFFFFFFFFFFF AND EQ PUSH2 0x2F5 JUMPI PUSH1 0x40 MLOAD PUSH32 0x8C379A000000000000000000000000000000000000000000000000000000000 DUP2 MSTORE PUSH1 0x4 ADD PUSH2 0x2EC SWAP1 PUSH2 0xE19 JUMP JUMPDEST PUSH1 0x40 MLOAD DUP1 SWAP2 SUB SWAP1 REVERT JUMPDEST PUSH1 0x1 ISZERO ISZERO PUSH1 0x1 PUSH1 0x2 SWAP1 SLOAD SWAP1 PUSH2 0x100 EXP SWAP1 DIV PUSH1 0xFF AND ISZERO ISZERO EQ PUSH2 0x34B JUMPI PUSH1 0x40 MLOAD PUSH32 0x8C379A000000000000000000000000000000000000000000000000000000000 DUP2 MSTORE PUSH1 0x4 ADD PUSH2 0x342 SWAP1 PUSH2 0xE85 JUMP JUMPDEST PUSH1 0x40 MLOAD DUP1 SWAP2 SUB SWAP1 REVERT JUMPDEST PUSH1 0x0 ISZERO ISZERO PUSH2 0x358 DUP3 PUSH2 0x8AC JUMP JUMPDEST ISZERO ISZERO EQ PUSH2 0x39A JUMPI PUSH1 0x40 MLOAD PUSH32 0x8C379A000000000000000000000000000000000000000000000000000000000 DUP2 MSTORE PUSH1 0x4 ADD PUSH2 0x391 SWAP1 PUSH2 0xEF1 JUMP JUMPDEST PUSH1 0x40 MLOAD DUP1 SWAP2 SUB SWAP1 REVERT JUMPDEST PUSH1 0x1 DUP1 SLOAD SWAP1 PUSH2 0x100 EXP SWAP1 DIV PUSH1 0xFF AND PUSH1 0xFF AND PUSH1 0x2 DUP1 SLOAD SWAP1 POP LT PUSH2 0x3F1 JUMPI PUSH1 0x40 MLOAD PUSH32 0x8C379A000000000000000000000000000000000000000000000000000000000 DUP2 MSTORE PUSH1 0x4 ADD PUSH2 0x3E8 SWAP1 PUSH2 0xF5D JUMP JUMPDEST PUSH1 0x40 MLOAD DUP1 SWAP2 SUB SWAP1 REVERT JUMPDEST PUSH1 0x2 DUP2 SWAP1 DUP1 PUSH1 0x1 DUP2 SLOAD ADD DUP1 DUP3 SSTORE DUP1 SWAP2 POP POP PUSH1 0x1 SWAP1 SUB SWAP1 PUSH1 0x0 MSTORE PUSH1 0x20 PUSH1 0x0 KECCAK256 ADD PUSH1 0x0 SWAP1 SWAP2 SWAP1 SWAP2 SWAP1 SWAP2 PUSH2 0x100 EXP DUP2 SLOAD DUP2 PUSH20 0xFFFFFFFFFFFFFFFFFFFFFFFFFFFFFFFFFFFFFFFF MUL NOT AND SWAP1 DUP4 PUSH20 0xFFFFFFFFFFFFFFFFFFFFFFFFFFFFFFFFFFFFFFFF AND MUL OR SWAP1 SSTORE POP POP JUMP JUMPDEST PUSH1 0x1 PUSH1 0x3 SWAP1 SLOAD SWAP1 PUSH2 0x100 EXP SWAP1 DIV PUSH20 0xFFFFFFFFFFFFFFFFFFFFFFFFFFFFFFFFFFFFFFFF AND PUSH20 0xFFFFFFFFFFFFFFFFFFFFFFFFFFFFFFFFFFFFFFFF AND CALLER PUSH20 0xFFFFFFFFFFFFFFFFFFFFFFFFFFFFFFFFFFFFFFFF AND EQ PUSH2 0x4E7 JUMPI PUSH1 0x40 MLOAD PUSH32 0x8C379A000000000000000000000000000000000000000000000000000000000 DUP2 MSTORE PUSH1 0x4 ADD PUSH2 0x4DE SWAP1 PUSH2 0xE19 JUMP JUMPDEST PUSH1 0x40 MLOAD DUP1 SWAP2 SUB SWAP1 REVERT JUMPDEST PUSH1 0x1 ISZERO ISZERO PUSH1 0x1 PUSH1 0x2 SWAP1 SLOAD SWAP1 PUSH2 0x100 EXP SWAP1 DIV PUSH1 0xFF AND ISZERO ISZERO EQ PUSH2 0x53D JUMPI PUSH1 0x40 MLOAD PUSH32 0x8C379A000000000000000000000000000000000000000000000000000000000 DUP2 MSTORE PUSH1 0x4 ADD PUSH2 0x534 SWAP1 PUSH2 0xE85 JUMP JUMPDEST PUSH1 0x40 MLOAD DUP1 SWAP2 SUB SWAP1 REVERT JUMPDEST PUSH1 0x1 DUP1 SLOAD SWAP1 PUSH2 0x100 EXP SWAP1 DIV PUSH1 0xFF AND PUSH1 0xFF AND PUSH1 0x2 DUP1 SLOAD SWAP1 POP EQ PUSH2 0x594 JUMPI PUSH1 0x40 MLOAD PUSH32 0x8C379A000000000000000000000000000000000000000000000000000000000 DUP2 MSTORE PUSH1 0x4 ADD PUSH2 0x58B SWAP1 PUSH2 0xFC9 JUMP JUMPDEST PUSH1 0x40 MLOAD DUP1 SWAP2 SUB SWAP1 REVERT JUMPDEST PUSH1 0x1 ISZERO ISZERO PUSH2 0x5A0 PUSH2 0x960 JUMP JUMPDEST ISZERO ISZERO EQ PUSH2 0x5E2 JUMPI PUSH1 0x40 MLOAD PUSH32 0x8C379A000000000000000000000000000000000000000000000000000000000 DUP2 MSTORE PUSH1 0x4 ADD PUSH2 0x5D9 SWAP1 PUSH2 0x1035 JUMP JUMPDEST PUSH1 0x40 MLOAD DUP1 SWAP2 SUB SWAP1 REVERT JUMPDEST PUSH1 0x3 PUSH1 0x0 PUSH2 0x5F0 SWAP2 SWAP1 PUSH2 0xB39 JUMP JUMPDEST PUSH1 0x0 JUMPDEST PUSH1 0x2 DUP1 SLOAD SWAP1 POP DUP2 PUSH1 0xFF AND LT ISZERO PUSH2 0x753 JUMPI PUSH1 0x0 PUSH1 0x5 PUSH1 0x0 PUSH1 0x2 DUP5 PUSH1 0xFF AND DUP2 SLOAD DUP2 LT PUSH2 0x620 JUMPI PUSH2 0x61F PUSH2 0x1055 JUMP JUMPDEST JUMPDEST SWAP1 PUSH1 0x0 MSTORE PUSH1 0x20 PUSH1 0x0 KECCAK256 ADD PUSH1 0x0 SWAP1 SLOAD SWAP1 PUSH2 0x100 EXP SWAP1 DIV PUSH20 0xFFFFFFFFFFFFFFFFFFFFFFFFFFFFFFFFFFFFFFFF AND PUSH20 0xFFFFFFFFFFFFFFFFFFFFFFFFFFFFFFFFFFFFFFFF AND PUSH20 0xFFFFFFFFFFFFFFFFFFFFFFFFFFFFFFFFFFFFFFFF AND DUP2 MSTORE PUSH1 0x20 ADD SWAP1 DUP2 MSTORE PUSH1 0x20 ADD PUSH1 0x0 KECCAK256 PUSH1 0x0 SWAP1 SLOAD SWAP1 PUSH2 0x100 EXP SWAP1 DIV PUSH1 0xFF AND PUSH1 0xFF AND SUB PUSH2 0x740 JUMPI PUSH1 0x3 PUSH1 0x2 DUP3 PUSH1 0xFF AND DUP2 SLOAD DUP2 LT PUSH2 0x6B4 JUMPI PUSH2 0x6B3 PUSH2 0x1055 JUMP JUMPDEST JUMPDEST SWAP1 PUSH1 0x0 MSTORE PUSH1 0x20 PUSH1 0x0 KECCAK256 ADD PUSH1 0x0 SWAP1 SLOAD SWAP1 PUSH2 0x100 EXP SWAP1 DIV PUSH20 0xFFFFFFFFFFFFFFFFFFFFFFFFFFFFFFFFFFFFFFFF AND SWAP1 DUP1 PUSH1 0x1 DUP2 SLOAD ADD DUP1 DUP3 SSTORE DUP1 SWAP2 POP POP PUSH1 0x1 SWAP1 SUB SWAP1 PUSH1 0x0 MSTORE PUSH1 0x20 PUSH1 0x0 KECCAK256 ADD PUSH1 0x0 SWAP1 SWAP2 SWAP1 SWAP2 SWAP1 SWAP2 PUSH2 0x100 EXP DUP2 SLOAD DUP2 PUSH20 0xFFFFFFFFFFFFFFFFFFFFFFFFFFFFFFFFFFFFFFFF MUL NOT AND SWAP1 DUP4 PUSH20 0xFFFFFFFFFFFFFFFFFFFFFFFFFFFFFFFFFFFFFFFF AND MUL OR SWAP1 SSTORE POP JUMPDEST DUP1 DUP1 PUSH2 0x74B SWAP1 PUSH2 0x1084 JUMP JUMPDEST SWAP2 POP POP PUSH2 0x5F3 JUMP JUMPDEST POP PUSH1 0x1 PUSH1 0x3 DUP1 SLOAD SWAP1 POP SUB PUSH2 0x7C9 JUMPI PUSH2 0x7A9 PUSH1 0x3 PUSH1 0x0 DUP2 SLOAD DUP2 LT PUSH2 0x779 JUMPI PUSH2 0x778 PUSH2 0x1055 JUMP JUMPDEST JUMPDEST SWAP1 PUSH1 0x0 MSTORE PUSH1 0x20 PUSH1 0x0 KECCAK256 ADD PUSH1 0x0 SWAP1 SLOAD SWAP1 PUSH2 0x100 EXP SWAP1 DIV PUSH20 0xFFFFFFFFFFFFFFFFFFFFFFFFFFFFFFFFFFFFFFFF AND PUSH2 0xA68 JUMP JUMPDEST PUSH1 0x0 PUSH1 0x1 PUSH1 0x2 PUSH2 0x100 EXP DUP2 SLOAD DUP2 PUSH1 0xFF MUL NOT AND SWAP1 DUP4 ISZERO ISZERO MUL OR SWAP1 SSTORE POP PUSH2 0x8AA JUMP JUMPDEST PUSH1 0x1 PUSH1 0x3 DUP1 SLOAD SWAP1 POP GT ISZERO PUSH2 0x86E JUMPI PUSH1 0x0 PUSH2 0x7E7 PUSH1 0x3 DUP1 SLOAD SWAP1 POP PUSH2 0xB19 JUMP JUMPDEST SWAP1 POP PUSH2 0x830 PUSH1 0x2 DUP3 DUP2 SLOAD DUP2 LT PUSH2 0x800 JUMPI PUSH2 0x7FF PUSH2 0x1055 JUMP JUMPDEST JUMPDEST SWAP1 PUSH1 0x0 MSTORE PUSH1 0x20 PUSH1 0x0 KECCAK256 ADD PUSH1 0x0 SWAP1 SLOAD SWAP1 PUSH2 0x100 EXP SWAP1 DIV PUSH20 0xFFFFFFFFFFFFFFFFFFFFFFFFFFFFFFFFFFFFFFFF AND PUSH2 0xA68 JUMP JUMPDEST PUSH1 0x1 PUSH1 0x0 DUP2 DUP2 SWAP1 SLOAD SWAP1 PUSH2 0x100 EXP SWAP1 DIV PUSH1 0xFF AND DUP1 SWAP3 SWAP2 SWAP1 PUSH2 0x84F SWAP1 PUSH2 0x1084 JUMP JUMPDEST SWAP2 SWAP1 PUSH2 0x100 EXP DUP2 SLOAD DUP2 PUSH1 0xFF MUL NOT AND SWAP1 DUP4 PUSH1 0xFF AND MUL OR SWAP1 SSTORE POP POP POP PUSH2 0x8A9 JUMP JUMPDEST PUSH1 0x40 MLOAD PUSH32 0x8C379A000000000000000000000000000000000000000000000000000000000 DUP2 MSTORE PUSH1 0x4 ADD PUSH2 0x8A0 SWAP1 PUSH2 0x10F9 JUMP JUMPDEST PUSH1 0x40 MLOAD DUP1 SWAP2 SUB SWAP1 REVERT JUMPDEST JUMPDEST JUMP JUMPDEST PUSH1 0x0 DUP1 PUSH1 0x0 SWAP1 POP JUMPDEST PUSH1 0x2 DUP1 SLOAD SWAP1 POP DUP2 PUSH1 0xFF AND LT ISZERO PUSH2 0x955 JUMPI DUP3 PUSH20 0xFFFFFFFFFFFFFFFFFFFFFFFFFFFFFFFFFFFFFFFF AND PUSH1 0x2 DUP3 PUSH1 0xFF AND DUP2 SLOAD DUP2 LT PUSH2 0x8F2 JUMPI PUSH2 0x8F1 PUSH2 0x1055 JUMP JUMPDEST JUMPDEST SWAP1 PUSH1 0x0 MSTORE PUSH1 0x20 PUSH1 0x0 KECCAK256 ADD PUSH1 0x0 SWAP1 SLOAD SWAP1 PUSH2 0x100 EXP SWAP1 DIV PUSH20 0xFFFFFFFFFFFFFFFFFFFFFFFFFFFFFFFFFFFFFFFF AND PUSH20 0xFFFFFFFFFFFFFFFFFFFFFFFFFFFFFFFFFFFFFFFF AND SUB PUSH2 0x942 JUMPI PUSH1 0x1 SWAP2 POP POP PUSH2 0x95B JUMP JUMPDEST DUP1 DUP1 PUSH2 0x94D SWAP1 PUSH2 0x1084 JUMP JUMPDEST SWAP2 POP POP PUSH2 0x8B4 JUMP JUMPDEST POP PUSH1 0x0 SWAP1 POP JUMPDEST SWAP2 SWAP1 POP JUMP JUMPDEST PUSH1 0x0 DUP1 PUSH1 0x0 SWAP1 POP JUMPDEST PUSH1 0x2 DUP1 SLOAD SWAP1 POP DUP2 PUSH1 0xFF AND LT ISZERO PUSH2 0xA5F JUMPI PUSH1 0x0 ISZERO ISZERO PUSH1 0x4 PUSH1 0x0 PUSH1 0x2 DUP5 PUSH1 0xFF AND DUP2 SLOAD DUP2 LT PUSH2 0x997 JUMPI PUSH2 0x996 PUSH2 0x1055 JUMP JUMPDEST JUMPDEST SWAP1 PUSH1 0x0 MSTORE PUSH1 0x20 PUSH1 0x0 KECCAK256 ADD PUSH1 0x0 SWAP1 SLOAD SWAP1 PUSH2 0x100 EXP SWAP1 DIV PUSH20 0xFFFFFFFFFFFFFFFFFFFFFFFFFFFFFFFFFFFFFFFF AND PUSH20 0xFFFFFFFFFFFFFFFFFFFFFFFFFFFFFFFFFFFFFFFF AND PUSH20 0xFFFFFFFFFFFFFFFFFFFFFFFFFFFFFFFFFFFFFFFF AND DUP2 MSTORE PUSH1 0x20 ADD SWAP1 DUP2 MSTORE PUSH1 0x20 ADD PUSH1 0x0 KECCAK256 PUSH1 0x0 PUSH1 0x1 DUP1 PUSH1 0x0 SWAP1 SLOAD SWAP1 PUSH2 0x100 EXP SWAP1 DIV PUSH1 0xFF AND PUSH2 0xA19 SWAP2 SWAP1 PUSH2 0xCC0 JUMP JUMPDEST PUSH1 0xFF AND PUSH1 0xFF AND DUP2 MSTORE PUSH1 0x20 ADD SWAP1 DUP2 MSTORE PUSH1 0x20 ADD PUSH1 0x0 KECCAK256 PUSH1 0x0 SWAP1 SLOAD SWAP1 PUSH2 0x100 EXP SWAP1 DIV PUSH1 0xFF AND ISZERO ISZERO SUB PUSH2 0xA4C JUMPI PUSH1 0x0 SWAP2 POP POP PUSH2 0xA65 JUMP JUMPDEST DUP1 DUP1 PUSH2 0xA57 SWAP1 PUSH2 0x1084 JUMP JUMPDEST SWAP2 POP POP PUSH2 0x968 JUMP JUMPDEST POP PUSH1 0x1 SWAP1 POP JUMPDEST SWAP1 JUMP JUMPDEST PUSH1 0x1 PUSH1 0x0 SWAP1 SLOAD SWAP1 PUSH2 0x100 EXP SWAP1 DIV PUSH1 0xFF AND PUSH1 0x5 PUSH1 0x0 DUP4 PUSH20 0xFFFFFFFFFFFFFFFFFFFFFFFFFFFFFFFFFFFFFFFF AND PUSH20 0xFFFFFFFFFFFFFFFFFFFFFFFFFFFFFFFFFFFFFFFF AND DUP2 MSTORE PUSH1 0x20 ADD SWAP1 DUP2 MSTORE PUSH1 0x20 ADD PUSH1 0x0 KECCAK256 PUSH1 0x0 PUSH2 0x100 EXP DUP2 SLOAD DUP2 PUSH1 0xFF MUL NOT AND SWAP1 DUP4 PUSH1 0xFF AND MUL OR SWAP1 SSTORE POP DUP1 PUSH20 0xFFFFFFFFFFFFFFFFFFFFFFFFFFFFFFFFFFFFFFFF AND PUSH2 0x8FC SELFBALANCE SWAP1 DUP2 ISZERO MUL SWAP1 PUSH1 0x40 MLOAD PUSH1 0x0 PUSH1 0x40 MLOAD DUP1 DUP4 SUB DUP2 DUP6 DUP9 DUP9 CALL SWAP4 POP POP POP POP ISZERO DUP1 ISZERO PUSH2 0xB15 JUMPI RETURNDATASIZE PUSH1 0x0 DUP1 RETURNDATACOPY RETURNDATASIZE PUSH1 0x0 REVERT JUMPDEST POP POP JUMP JUMPDEST PUSH1 0x0 DUP2 TIMESTAMP PREVRANDAO PUSH2 0xB28 SWAP2 SWAP1 PUSH2 0x1123 JUMP JUMPDEST PUSH2 0xB32 SWAP2 SWAP1 PUSH2 0x1186 JUMP JUMPDEST SWAP1 POP SWAP2 SWAP1 POP JUMP JUMPDEST POP DUP1 SLOAD PUSH1 0x0 DUP3 SSTORE SWAP1 PUSH1 0x0 MSTORE PUSH1 0x20 PUSH1 0x0 KECCAK256 SWAP1 DUP2 ADD SWAP1 PUSH2 0xB57 SWAP2 SWAP1 PUSH2 0xB5A JUMP JUMPDEST POP JUMP JUMPDEST JUMPDEST DUP1 DUP3 GT ISZERO PUSH2 0xB73 JUMPI PUSH1 0x0 DUP2 PUSH1 0x0 SWAP1 SSTORE POP PUSH1 0x1 ADD PUSH2 0xB5B JUMP JUMPDEST POP SWAP1 JUMP JUMPDEST PUSH1 0x0 DUP1 REVERT JUMPDEST PUSH1 0x0 PUSH20 0xFFFFFFFFFFFFFFFFFFFFFFFFFFFFFFFFFFFFFFFF DUP3 AND SWAP1 POP SWAP2 SWAP1 POP JUMP JUMPDEST PUSH1 0x0 PUSH2 0xBA7 DUP3 PUSH2 0xB7C JUMP JUMPDEST SWAP1 POP SWAP2 SWAP1 POP JUMP JUMPDEST PUSH2 0xBB7 DUP2 PUSH2 0xB9C JUMP JUMPDEST DUP2 EQ PUSH2 0xBC2 JUMPI PUSH1 0x0 DUP1 REVERT JUMPDEST POP JUMP JUMPDEST PUSH1 0x0 DUP2 CALLDATALOAD SWAP1 POP PUSH2 0xBD4 DUP2 PUSH2 0xBAE JUMP JUMPDEST SWAP3 SWAP2 POP POP JUMP JUMPDEST PUSH1 0x0 PUSH1 0x20 DUP3 DUP5 SUB SLT ISZERO PUSH2 0xBF0 JUMPI PUSH2 0xBEF PUSH2 0xB77 JUMP JUMPDEST JUMPDEST PUSH1 0x0 PUSH2 0xBFE DUP5 DUP3 DUP6 ADD PUSH2 0xBC5 JUMP JUMPDEST SWAP2 POP POP SWAP3 SWAP2 POP POP JUMP JUMPDEST PUSH1 0x0 DUP3 DUP3 MSTORE PUSH1 0x20 DUP3 ADD SWAP1 POP SWAP3 SWAP2 POP POP JUMP JUMPDEST PUSH32 0x4E6F742061206D656D6265722100000000000000000000000000000000000000 PUSH1 0x0 DUP3 ADD MSTORE POP JUMP JUMPDEST PUSH1 0x0 PUSH2 0xC4E PUSH1 0xD DUP4 PUSH2 0xC07 JUMP JUMPDEST SWAP2 POP PUSH2 0xC59 DUP3 PUSH2 0xC18 JUMP JUMPDEST PUSH1 0x20 DUP3 ADD SWAP1 POP SWAP2 SWAP1 POP JUMP JUMPDEST PUSH1 0x0 PUSH1 0x20 DUP3 ADD SWAP1 POP DUP2 DUP2 SUB PUSH1 0x0 DUP4 ADD MSTORE PUSH2 0xC7D DUP2 PUSH2 0xC41 JUMP JUMPDEST SWAP1 POP SWAP2 SWAP1 POP JUMP JUMPDEST PUSH1 0x0 PUSH1 0xFF DUP3 AND SWAP1 POP SWAP2 SWAP1 POP JUMP JUMPDEST PUSH32 0x4E487B7100000000000000000000000000000000000000000000000000000000 PUSH1 0x0 MSTORE PUSH1 0x11 PUSH1 0x4 MSTORE PUSH1 0x24 PUSH1 0x0 REVERT JUMPDEST PUSH1 0x0 PUSH2 0xCCB DUP3 PUSH2 0xC84 JUMP JUMPDEST SWAP2 POP PUSH2 0xCD6 DUP4 PUSH2 0xC84 JUMP JUMPDEST SWAP3 POP DUP3 DUP3 SUB SWAP1 POP PUSH1 0xFF DUP2 GT ISZERO PUSH2 0xCEF JUMPI PUSH2 0xCEE PUSH2 0xC91 JUMP JUMPDEST JUMPDEST SWAP3 SWAP2 POP POP JUMP JUMPDEST PUSH32 0x416C7265616479207061696420696E207468697320726F756E64000000000000 PUSH1 0x0 DUP3 ADD MSTORE POP JUMP JUMPDEST PUSH1 0x0 PUSH2 0xD2B PUSH1 0x1A DUP4 PUSH2 0xC07 JUMP JUMPDEST SWAP2 POP PUSH2 0xD36 DUP3 PUSH2 0xCF5 JUMP JUMPDEST PUSH1 0x20 DUP3 ADD SWAP1 POP SWAP2 SWAP1 POP JUMP JUMPDEST PUSH1 0x0 PUSH1 0x20 DUP3 ADD SWAP1 POP DUP2 DUP2 SUB PUSH1 0x0 DUP4 ADD MSTORE PUSH2 0xD5A DUP2 PUSH2 0xD1E JUMP JUMPDEST SWAP1 POP SWAP2 SWAP1 POP JUMP JUMPDEST PUSH32 0x5061796D656E742076616C7565206973206E6F742076616C6964210000000000 PUSH1 0x0 DUP3 ADD MSTORE POP JUMP JUMPDEST PUSH1 0x0 PUSH2 0xD97 PUSH1 0x1B DUP4 PUSH2 0xC07 JUMP JUMPDEST SWAP2 POP PUSH2 0xDA2 DUP3 PUSH2 0xD61 JUMP JUMPDEST PUSH1 0x20 DUP3 ADD SWAP1 POP SWAP2 SWAP1 POP JUMP JUMPDEST PUSH1 0x0 PUSH1 0x20 DUP3 ADD SWAP1 POP DUP2 DUP2 SUB PUSH1 0x0 DUP4 ADD MSTORE PUSH2 0xDC6 DUP2 PUSH2 0xD8A JUMP JUMPDEST SWAP1 POP SWAP2 SWAP1 POP JUMP JUMPDEST PUSH32 0x53656E646572206E6F7420617574686F72697A65640000000000000000000000 PUSH1 0x0 DUP3 ADD MSTORE POP JUMP JUMPDEST PUSH1 0x0 PUSH2 0xE03 PUSH1 0x15 DUP4 PUSH2 0xC07 JUMP JUMPDEST SWAP2 POP PUSH2 0xE0E DUP3 PUSH2 0xDCD JUMP JUMPDEST PUSH1 0x20 DUP3 ADD SWAP1 POP SWAP2 SWAP1 POP JUMP JUMPDEST PUSH1 0x0 PUSH1 0x20 DUP3 ADD SWAP1 POP DUP2 DUP2 SUB PUSH1 0x0 DUP4 ADD MSTORE PUSH2 0xE32 DUP2 PUSH2 0xDF6 JUMP JUMPDEST SWAP1 POP SWAP2 SWAP1 POP JUMP JUMPDEST PUSH32 0x46756E6420697320636C6F736564210000000000000000000000000000000000 PUSH1 0x0 DUP3 ADD MSTORE POP JUMP JUMPDEST PUSH1 0x0 PUSH2 0xE6F PUSH1 0xF DUP4 PUSH2 0xC07 JUMP JUMPDEST SWAP2 POP PUSH2 0xE7A DUP3 PUSH2 0xE39 JUMP JUMPDEST PUSH1 0x20 DUP3 ADD SWAP1 POP SWAP2 SWAP1 POP JUMP JUMPDEST PUSH1 0x0 PUSH1 0x20 DUP3 ADD SWAP1 POP DUP2 DUP2 SUB PUSH1 0x0 DUP4 ADD MSTORE PUSH2 0xE9E DUP2 PUSH2 0xE62 JUMP JUMPDEST SWAP1 POP SWAP2 SWAP1 POP JUMP JUMPDEST PUSH32 0x416C726561647920616464656421000000000000000000000000000000000000 PUSH1 0x0 DUP3 ADD MSTORE POP JUMP JUMPDEST PUSH1 0x0 PUSH2 0xEDB PUSH1 0xE DUP4 PUSH2 0xC07 JUMP JUMPDEST SWAP2 POP PUSH2 0xEE6 DUP3 PUSH2 0xEA5 JUMP JUMPDEST PUSH1 0x20 DUP3 ADD SWAP1 POP SWAP2 SWAP1 POP JUMP JUMPDEST PUSH1 0x0 PUSH1 0x20 DUP3 ADD SWAP1 POP DUP2 DUP2 SUB PUSH1 0x0 DUP4 ADD MSTORE PUSH2 0xF0A DUP2 PUSH2 0xECE JUMP JUMPDEST SWAP1 POP SWAP2 SWAP1 POP JUMP JUMPDEST PUSH32 0x4E6F20656D707479207370616365210000000000000000000000000000000000 PUSH1 0x0 DUP3 ADD MSTORE POP JUMP JUMPDEST PUSH1 0x0 PUSH2 0xF47 PUSH1 0xF DUP4 PUSH2 0xC07 JUMP JUMPDEST SWAP2 POP PUSH2 0xF52 DUP3 PUSH2 0xF11 JUMP JUMPDEST PUSH1 0x20 DUP3 ADD SWAP1 POP SWAP2 SWAP1 POP JUMP JUMPDEST PUSH1 0x0 PUSH1 0x20 DUP3 ADD SWAP1 POP DUP2 DUP2 SUB PUSH1 0x0 DUP4 ADD MSTORE PUSH2 0xF76 DUP2 PUSH2 0xF3A JUMP JUMPDEST SWAP1 POP SWAP2 SWAP1 POP JUMP JUMPDEST PUSH32 0x536F6D65206D656D62657273206E6F7420616464656420796574210000000000 PUSH1 0x0 DUP3 ADD MSTORE POP JUMP JUMPDEST PUSH1 0x0 PUSH2 0xFB3 PUSH1 0x1B DUP4 PUSH2 0xC07 JUMP JUMPDEST SWAP2 POP PUSH2 0xFBE DUP3 PUSH2 0xF7D JUMP JUMPDEST PUSH1 0x20 DUP3 ADD SWAP1 POP SWAP2 SWAP1 POP JUMP JUMPDEST PUSH1 0x0 PUSH1 0x20 DUP3 ADD SWAP1 POP DUP2 DUP2 SUB PUSH1 0x0 DUP4 ADD MSTORE PUSH2 0xFE2 DUP2 PUSH2 0xFA6 JUMP JUMPDEST SWAP1 POP SWAP2 SWAP1 POP JUMP JUMPDEST PUSH32 0x416C6C206D656D62657273206D757374207061696420696E20726F756E642100 PUSH1 0x0 DUP3 ADD MSTORE POP JUMP JUMPDEST PUSH1 0x0 PUSH2 0x101F PUSH1 0x1F DUP4 PUSH2 0xC07 JUMP JUMPDEST SWAP2 POP PUSH2 0x102A DUP3 PUSH2 0xFE9 JUMP JUMPDEST PUSH1 0x20 DUP3 ADD SWAP1 POP SWAP2 SWAP1 POP JUMP JUMPDEST PUSH1 0x0 PUSH1 0x20 DUP3 ADD SWAP1 POP DUP2 DUP2 SUB PUSH1 0x0 DUP4 ADD MSTORE PUSH2 0x104E DUP2 PUSH2 0x1012 JUMP JUMPDEST SWAP1 POP SWAP2 SWAP1 POP JUMP JUMPDEST PUSH32 0x4E487B7100000000000000000000000000000000000000000000000000000000 PUSH1 0x0 MSTORE PUSH1 0x32 PUSH1 0x4 MSTORE PUSH1 0x24 PUSH1 0x0 REVERT JUMPDEST PUSH1 0x0 PUSH2 0x108F DUP3 PUSH2 0xC84 JUMP JUMPDEST SWAP2 POP PUSH1 0xFF DUP3 SUB PUSH2 0x10A2 JUMPI PUSH2 0x10A1 PUSH2 0xC91 JUMP JUMPDEST JUMPDEST PUSH1 0x1 DUP3 ADD SWAP1 POP SWAP2 SWAP1 POP JUMP JUMPDEST PUSH32 0x536F6D657468696E67206261642069732068617070656E656421000000000000 PUSH1 0x0 DUP3 ADD MSTORE POP JUMP JUMPDEST PUSH1 0x0 PUSH2 0x10E3 PUSH1 0x1A DUP4 PUSH2 0xC07 JUMP JUMPDEST SWAP2 POP PUSH2 0x10EE DUP3 PUSH2 0x10AD JUMP JUMPDEST PUSH1 0x20 DUP3 ADD SWAP1 POP SWAP2 SWAP1 POP JUMP JUMPDEST PUSH1 0x0 PUSH1 0x20 DUP3 ADD SWAP1 POP DUP2 DUP2 SUB PUSH1 0x0 DUP4 ADD MSTORE PUSH2 0x1112 DUP2 PUSH2 0x10D6 JUMP JUMPDEST SWAP1 POP SWAP2 SWAP1 POP JUMP JUMPDEST PUSH1 0x0 DUP2 SWAP1 POP SWAP2 SWAP1 POP JUMP JUMPDEST PUSH1 0x0 PUSH2 0x112E DUP3 PUSH2 0x1119 JUMP JUMPDEST SWAP2 POP PUSH2 0x1139 DUP4 PUSH2 0x1119 JUMP JUMPDEST SWAP3 POP DUP3 DUP3 ADD SWAP1 POP DUP1 DUP3 GT ISZERO PUSH2 0x1151 JUMPI PUSH2 0x1150 PUSH2 0xC91 JUMP JUMPDEST JUMPDEST SWAP3 SWAP2 POP POP JUMP JUMPDEST PUSH32 0x4E487B7100000000000000000000000000000000000000000000000000000000 PUSH1 0x0 MSTORE PUSH1 0x12 PUSH1 0x4 MSTORE PUSH1 0x24 PUSH1 0x0 REVERT JUMPDEST PUSH1 0x0 PUSH2 0x1191 DUP3 PUSH2 0x1119 JUMP JUMPDEST SWAP2 POP PUSH2 0x119C DUP4 PUSH2 0x1119 JUMP JUMPDEST SWAP3 POP DUP3 PUSH2 0x11AC JUMPI PUSH2 0x11AB PUSH2 0x1157 JUMP JUMPDEST JUMPDEST DUP3 DUP3 MOD SWAP1 POP SWAP3 SWAP2 POP POP JUMP INVALID LOG2 PUSH5 0x6970667358 0x22 SLT KECCAK256 JUMPI PUSH4 0x1FD4D4EB 0x26 0xFC BYTE 0xFC 0xD6 0xDF SWAP11 0xC2 PUSH4 0x273E8C03 0xD2 SHL BASEFEE 0xDB 0x2E 0x4F 0xB9 0xD1 PUSH16 0x60095B0764736F6C6343000812003300 "
				},
				"gasEstimates": {
					"creation": {
						"codeDepositCost": "917800",
						"executionCost": "infinite",
						"totalCost": "infinite"
					},
					"external": {
						"addMember(address)": "infinite",
						"chooseWinner()": "infinite",
						"payShare()": "infinite"
					},
					"internal": {
						"chooseRandom(uint256)": "infinite",
						"findMember(address)": "infinite",
						"isAllPaidInRound()": "infinite",
						"weHaveAWinner(address payable)": "infinite"
					}
				},
				"methodIdentifiers": {
					"addMember(address)": "ca6d56dc",
					"chooseWinner()": "cd38aa87",
					"payShare()": "99c571e7"
				}
			},
			"storageLayout": {
				"storage": [
					{
						"astId": 3,
						"contract": "contracts/FamilyFund.sol:FamilyFund",
						"label": "share",
						"offset": 0,
						"slot": "0",
						"type": "t_uint256"
					},
					{
						"astId": 5,
						"contract": "contracts/FamilyFund.sol:FamilyFund",
						"label": "round",
						"offset": 0,
						"slot": "1",
						"type": "t_uint8"
					},
					{
						"astId": 7,
						"contract": "contracts/FamilyFund.sol:FamilyFund",
						"label": "membersCount",
						"offset": 1,
						"slot": "1",
						"type": "t_uint8"
					},
					{
						"astId": 9,
						"contract": "contracts/FamilyFund.sol:FamilyFund",
						"label": "isFundActive",
						"offset": 2,
						"slot": "1",
						"type": "t_bool"
					},
					{
						"astId": 11,
						"contract": "contracts/FamilyFund.sol:FamilyFund",
						"label": "owner",
						"offset": 3,
						"slot": "1",
						"type": "t_address"
					},
					{
						"astId": 14,
						"contract": "contracts/FamilyFund.sol:FamilyFund",
						"label": "members",
						"offset": 0,
						"slot": "2",
						"type": "t_array(t_address_payable)dyn_storage"
					},
					{
						"astId": 17,
						"contract": "contracts/FamilyFund.sol:FamilyFund",
						"label": "remains",
						"offset": 0,
						"slot": "3",
						"type": "t_array(t_address_payable)dyn_storage"
					},
					{
						"astId": 23,
						"contract": "contracts/FamilyFund.sol:FamilyFund",
						"label": "paidShares",
						"offset": 0,
						"slot": "4",
						"type": "t_mapping(t_address,t_mapping(t_uint8,t_bool))"
					},
					{
						"astId": 27,
						"contract": "contracts/FamilyFund.sol:FamilyFund",
						"label": "winners",
						"offset": 0,
						"slot": "5",
						"type": "t_mapping(t_address,t_uint8)"
					}
				],
				"types": {
					"t_address": {
						"encoding": "inplace",
						"label": "address",
						"numberOfBytes": "20"
					},
					"t_address_payable": {
						"encoding": "inplace",
						"label": "address payable",
						"numberOfBytes": "20"
					},
					"t_array(t_address_payable)dyn_storage": {
						"base": "t_address_payable",
						"encoding": "dynamic_array",
						"label": "address payable[]",
						"numberOfBytes": "32"
					},
					"t_bool": {
						"encoding": "inplace",
						"label": "bool",
						"numberOfBytes": "1"
					},
					"t_mapping(t_address,t_mapping(t_uint8,t_bool))": {
						"encoding": "mapping",
						"key": "t_address",
						"label": "mapping(address => mapping(uint8 => bool))",
						"numberOfBytes": "32",
						"value": "t_mapping(t_uint8,t_bool)"
					},
					"t_mapping(t_address,t_uint8)": {
						"encoding": "mapping",
						"key": "t_address",
						"label": "mapping(address => uint8)",
						"numberOfBytes": "32",
						"value": "t_uint8"
					},
					"t_mapping(t_uint8,t_bool)": {
						"encoding": "mapping",
						"key": "t_uint8",
						"label": "mapping(uint8 => bool)",
						"numberOfBytes": "32",
						"value": "t_bool"
					},
					"t_uint256": {
						"encoding": "inplace",
						"label": "uint256",
						"numberOfBytes": "32"
					},
					"t_uint8": {
						"encoding": "inplace",
						"label": "uint8",
						"numberOfBytes": "1"
					}
				}
			},
			"userdoc": {
				"kind": "user",
				"methods": {},
				"version": 1
			}
		}
	}
}