{
  "contractName": "FamilyFund",
  "abi": [
    {
      "inputs": [],
      "name": "isFundActive",
      "outputs": [
        {
          "internalType": "bool",
          "name": "",
          "type": "bool"
        }
      ],
      "stateMutability": "view",
      "type": "function",
      "constant": true
    },
    {
      "inputs": [],
      "name": "membersCount",
      "outputs": [
        {
          "internalType": "uint8",
          "name": "",
          "type": "uint8"
        }
      ],
      "stateMutability": "view",
      "type": "function",
      "constant": true
    },
    {
      "inputs": [],
      "name": "owner",
      "outputs": [
        {
          "internalType": "address",
          "name": "",
          "type": "address"
        }
      ],
      "stateMutability": "view",
      "type": "function",
      "constant": true
    },
    {
      "inputs": [
        {
          "internalType": "uint8",
          "name": "_membersCount",
          "type": "uint8"
        },
        {
          "internalType": "uint256",
          "name": "_share",
          "type": "uint256"
        }
      ],
      "name": "createFund",
      "outputs": [],
      "stateMutability": "nonpayable",
      "type": "function"
    },
    {
      "inputs": [
        {
          "internalType": "address payable",
          "name": "_newMember",
          "type": "address"
        }
      ],
      "name": "addMember",
      "outputs": [],
      "stateMutability": "nonpayable",
      "type": "function"
    },
    {
      "inputs": [],
      "name": "payShare",
      "outputs": [],
      "stateMutability": "payable",
      "type": "function",
      "payable": true
    },
    {
      "inputs": [],
      "name": "chooseWinner",
      "outputs": [],
      "stateMutability": "nonpayable",
      "type": "function"
    },
    {
      "inputs": [],
      "name": "returnFundBalance",
      "outputs": [
        {
          "internalType": "uint256",
          "name": "",
          "type": "uint256"
        }
      ],
      "stateMutability": "view",
      "type": "function",
      "constant": true
    }
  ],
  "bytecode": "0x608060405234801561001057600080fd5b50611545806100206000396000f3fe60806040526004361061007b5760003560e01c806399c571e71161004e57806399c571e71461012a578063b0b3ccb214610134578063ca6d56dc1461015f578063cd38aa87146101885761007b565b80631965190014610080578063297f9af0146100a9578063851ded9a146100d45780638da5cb5b146100ff575b600080fd5b34801561008c57600080fd5b506100a760048036038101906100a29190610e1b565b61019f565b005b3480156100b557600080fd5b506100be610245565b6040516100cb9190610e6a565b60405180910390f35b3480156100e057600080fd5b506100e9610258565b6040516100f69190610ea0565b60405180910390f35b34801561010b57600080fd5b5061011461026b565b6040516101219190610efc565b60405180910390f35b610132610291565b005b34801561014057600080fd5b5061014961043e565b6040516101569190610f26565b60405180910390f35b34801561016b57600080fd5b5061018660048036038101906101819190610f7f565b6104d8565b005b34801561019457600080fd5b5061019d6106cc565b005b81600360156101000a81548160ff021916908360ff1602179055508060048190555033600360006101000a81548173ffffffffffffffffffffffffffffffffffffffff021916908373ffffffffffffffffffffffffffffffffffffffff1602179055506001600360166101000a81548160ff021916908360ff1602179055506001600360146101000a81548160ff02191690831515021790555060006005819055505050565b600360159054906101000a900460ff1681565b600360149054906101000a900460ff1681565b600360009054906101000a900473ffffffffffffffffffffffffffffffffffffffff1681565b60011515600160003373ffffffffffffffffffffffffffffffffffffffff1673ffffffffffffffffffffffffffffffffffffffff16815260200190815260200160002060006001600360169054906101000a900460ff166102f29190610fdb565b60ff1660ff16815260200190815260200160002060009054906101000a900460ff16151514610356576040517f08c379a000000000000000000000000000000000000000000000000000000000815260040161034d9061106d565b60405180910390fd5b600454340361039a576040517f08c379a0000000000000000000000000000000000000000000000000000000008152600401610391906110d9565b60405180910390fd5b34600560008282546103ac91906110f9565b9250508190555060018060003373ffffffffffffffffffffffffffffffffffffffff1673ffffffffffffffffffffffffffffffffffffffff16815260200190815260200160002060006001600360169054906101000a900460ff166104119190610fdb565b60ff1660ff16815260200190815260200160002060006101000a81548160ff021916908315150217905550565b6000600360009054906101000a900473ffffffffffffffffffffffffffffffffffffffff1673ffffffffffffffffffffffffffffffffffffffff163373ffffffffffffffffffffffffffffffffffffffff16146104d0576040517f08c379a00000000000000000000000000000000000000000000000000000000081526004016104c790611179565b60405180910390fd5b600554905090565b600360009054906101000a900473ffffffffffffffffffffffffffffffffffffffff1673ffffffffffffffffffffffffffffffffffffffff163373ffffffffffffffffffffffffffffffffffffffff1614610568576040517f08c379a000000000000000000000000000000000000000000000000000000000815260040161055f90611179565b60405180910390fd5b60011515600360149054906101000a900460ff161515146105be576040517f08c379a00000000000000000000000000000000000000000000000000000000081526004016105b5906111e5565b60405180910390fd5b600015156105cb82610b0d565b15151461060d576040517f08c379a000000000000000000000000000000000000000000000000000000000815260040161060490611251565b60405180910390fd5b600360159054906101000a900460ff1660ff1660008054905010610666576040517f08c379a000000000000000000000000000000000000000000000000000000000815260040161065d906112bd565b60405180910390fd5b6000819080600181540180825580915050600190039060005260206000200160009091909190916101000a81548173ffffffffffffffffffffffffffffffffffffffff021916908373ffffffffffffffffffffffffffffffffffffffff16021790555050565b600360009054906101000a900473ffffffffffffffffffffffffffffffffffffffff1673ffffffffffffffffffffffffffffffffffffffff163373ffffffffffffffffffffffffffffffffffffffff161461075c576040517f08c379a000000000000000000000000000000000000000000000000000000000815260040161075390611179565b60405180910390fd5b60001515600360149054906101000a900460ff161515146107b2576040517f08c379a00000000000000000000000000000000000000000000000000000000081526004016107a9906111e5565b60405180910390fd5b600360159054906101000a900460ff1660ff166000805490501461080b576040517f08c379a000000000000000000000000000000000000000000000000000000000815260040161080290611329565b60405180910390fd5b60011515610817610bc1565b151514610859576040517f08c379a000000000000000000000000000000000000000000000000000000000815260040161085090611395565b60405180910390fd5b606060007fffffffffffffffffffffffffffffffffffffffffffffffffffffffffffffffff905060005b6000805490508160ff1610156109dc57600060026000808460ff16815481106108af576108ae6113b5565b5b9060005260206000200160009054906101000a900473ffffffffffffffffffffffffffffffffffffffff1673ffffffffffffffffffffffffffffffffffffffff1673ffffffffffffffffffffffffffffffffffffffff16815260200190815260200160002060009054906101000a900460ff1660ff16036109c95760008160ff1681548110610941576109406113b5565b5b9060005260206000200160009054906101000a900473ffffffffffffffffffffffffffffffffffffffff168383610977906113f1565b93508360ff168151811061098e5761098d6113b5565b5b602002602001019073ffffffffffffffffffffffffffffffffffffffff16908173ffffffffffffffffffffffffffffffffffffffff16815250505b80806109d49061141a565b915050610883565b5060008160000b03610a2c57610a0c826000815181106109ff576109fe6113b5565b5b6020026020010151610cc9565b6000600360146101000a81548160ff021916908315150217905550610b09565b60008160000b1315610acd576000610a4382610d84565b9050610a8f60008260ff1681548110610a5f57610a5e6113b5565b5b9060005260206000200160009054906101000a900473ffffffffffffffffffffffffffffffffffffffff16610cc9565b6003601681819054906101000a900460ff1680929190610aae9061141a565b91906101000a81548160ff021916908360ff1602179055505050610b08565b6040517f08c379a0000000000000000000000000000000000000000000000000000000008152600401610aff9061148f565b60405180910390fd5b5b5050565b600080600090505b6000805490508160ff161015610bb6578273ffffffffffffffffffffffffffffffffffffffff1660008260ff1681548110610b5357610b526113b5565b5b9060005260206000200160009054906101000a900473ffffffffffffffffffffffffffffffffffffffff1673ffffffffffffffffffffffffffffffffffffffff1603610ba3576001915050610bbc565b8080610bae9061141a565b915050610b15565b50600090505b919050565b600080600090505b6000805490508160ff161015610cc0576000151560016000808460ff1681548110610bf757610bf66113b5565b5b9060005260206000200160009054906101000a900473ffffffffffffffffffffffffffffffffffffffff1673ffffffffffffffffffffffffffffffffffffffff1673ffffffffffffffffffffffffffffffffffffffff16815260200190815260200160002060006001600360169054906101000a900460ff16610c7a9190610fdb565b60ff1660ff16815260200190815260200160002060009054906101000a900460ff16151503610cad576000915050610cc6565b8080610cb89061141a565b915050610bc9565b50600190505b90565b600360169054906101000a900460ff16600260008373ffffffffffffffffffffffffffffffffffffffff1673ffffffffffffffffffffffffffffffffffffffff16815260200190815260200160002060006101000a81548160ff021916908360ff1602179055508073ffffffffffffffffffffffffffffffffffffffff166108fc6005549081150290604051600060405180830381858888f19350505050158015610d78573d6000803e3d6000fd5b50600060058190555050565b60008160ff164244610d9691906110f9565b610da091906114de565b9050919050565b600080fd5b600060ff82169050919050565b610dc281610dac565b8114610dcd57600080fd5b50565b600081359050610ddf81610db9565b92915050565b6000819050919050565b610df881610de5565b8114610e0357600080fd5b50565b600081359050610e1581610def565b92915050565b60008060408385031215610e3257610e31610da7565b5b6000610e4085828601610dd0565b9250506020610e5185828601610e06565b9150509250929050565b610e6481610dac565b82525050565b6000602082019050610e7f6000830184610e5b565b92915050565b60008115159050919050565b610e9a81610e85565b82525050565b6000602082019050610eb56000830184610e91565b92915050565b600073ffffffffffffffffffffffffffffffffffffffff82169050919050565b6000610ee682610ebb565b9050919050565b610ef681610edb565b82525050565b6000602082019050610f116000830184610eed565b92915050565b610f2081610de5565b82525050565b6000602082019050610f3b6000830184610f17565b92915050565b6000610f4c82610ebb565b9050919050565b610f5c81610f41565b8114610f6757600080fd5b50565b600081359050610f7981610f53565b92915050565b600060208284031215610f9557610f94610da7565b5b6000610fa384828501610f6a565b91505092915050565b7f4e487b7100000000000000000000000000000000000000000000000000000000600052601160045260246000fd5b6000610fe682610dac565b9150610ff183610dac565b9250828203905060ff81111561100a57611009610fac565b5b92915050565b600082825260208201905092915050565b7f416c7265616479207061696420696e207468697320726f756e64000000000000600082015250565b6000611057601a83611010565b915061106282611021565b602082019050919050565b600060208201905081810360008301526110868161104a565b9050919050565b7f5061796d656e742076616c7565206973206e6f742076616c6964210000000000600082015250565b60006110c3601b83611010565b91506110ce8261108d565b602082019050919050565b600060208201905081810360008301526110f2816110b6565b9050919050565b600061110482610de5565b915061110f83610de5565b925082820190508082111561112757611126610fac565b5b92915050565b7f53656e646572206e6f7420617574686f72697a65640000000000000000000000600082015250565b6000611163601583611010565b915061116e8261112d565b602082019050919050565b6000602082019050818103600083015261119281611156565b9050919050565b7f46756e6420697320636c6f736564210000000000000000000000000000000000600082015250565b60006111cf600f83611010565b91506111da82611199565b602082019050919050565b600060208201905081810360008301526111fe816111c2565b9050919050565b7f416c726561647920616464656421000000000000000000000000000000000000600082015250565b600061123b600e83611010565b915061124682611205565b602082019050919050565b6000602082019050818103600083015261126a8161122e565b9050919050565b7f4e6f20656d707479207370616365210000000000000000000000000000000000600082015250565b60006112a7600f83611010565b91506112b282611271565b602082019050919050565b600060208201905081810360008301526112d68161129a565b9050919050565b7f536f6d65206d656d62657273206e6f7420616464656420796574210000000000600082015250565b6000611313601b83611010565b915061131e826112dd565b602082019050919050565b6000602082019050818103600083015261134281611306565b9050919050565b7f416c6c206d656d62657273206d757374207061696420696e20726f756e642100600082015250565b600061137f601f83611010565b915061138a82611349565b602082019050919050565b600060208201905081810360008301526113ae81611372565b9050919050565b7f4e487b7100000000000000000000000000000000000000000000000000000000600052603260045260246000fd5b60008160000b9050919050565b60006113fc826113e4565b9150607f820361140f5761140e610fac565b5b600182019050919050565b600061142582610dac565b915060ff820361143857611437610fac565b5b600182019050919050565b7f536f6d657468696e67206261642069732068617070656e656421000000000000600082015250565b6000611479601a83611010565b915061148482611443565b602082019050919050565b600060208201905081810360008301526114a88161146c565b9050919050565b7f4e487b7100000000000000000000000000000000000000000000000000000000600052601260045260246000fd5b60006114e982610de5565b91506114f483610de5565b925082611504576115036114af565b5b82820690509291505056fea264697066735822122056860bfb98b9934ab3f55bc8c587758baf69521bb1baaa44278b781bd75a419a64736f6c63430008130033",
  "immutableReferences": {},
  "source": "// SPDX-License-Identifier: MIT\r\npragma solidity ^0.8.17;\r\n\r\ncontract FamilyFund {\r\n    address payable[] private members;\r\n    mapping(address => mapping(uint8 => bool)) paidShares; //each user in each round\r\n    mapping(address => uint8) winners; //map each address to round of win\r\n    address public owner;\r\n    bool public isFundActive; // changed to public\r\n    uint8 public membersCount; // changed to public\r\n    uint8 private round;\r\n    uint private share;\r\n    uint private fundBalance;\r\n\r\n    // constructor(uint8 _membersCount, uint _share) {\r\n    //     membersCount = _membersCount;\r\n    //     share = _share;\r\n    //     owner = msg.sender;\r\n    //     round = 1;\r\n    // }\r\n\r\n    function createFund(uint8 _membersCount, uint _share) public {\r\n        membersCount = _membersCount;\r\n        share = _share;\r\n        owner = msg.sender;\r\n        round = 1;\r\n        isFundActive = true;\r\n        fundBalance = 0;\r\n    }\r\n\r\n    function addMember(address payable _newMember) public OwnerOnly {\r\n        require(isFundActive == true, \"Fund is closed!\");\r\n        require(findMember(_newMember) == false, \"Already added!\");\r\n        require(members.length < membersCount, \"No empty space!\");\r\n        members.push(_newMember);\r\n    }\r\n\r\n    function payShare() public payable {\r\n        require(\r\n            paidShares[msg.sender][round - 1] == true,\r\n            \"Already paid in this round\"\r\n        );\r\n        require(msg.value != share, \"Payment value is not valid!\");\r\n        fundBalance += msg.value;\r\n        paidShares[msg.sender][round - 1] = true;\r\n    }\r\n\r\n    function chooseWinner() public OwnerOnly {\r\n        require(isFundActive == false, \"Fund is closed!\");\r\n        require(members.length == membersCount, \"Some members not added yet!\");\r\n        require(isAllPaidInRound() == true, \"All members must paid in round!\");\r\n        address payable[] memory remains;\r\n        int8 i = -1;\r\n        for (uint8 index = 0; index < members.length; index++)\r\n            if (winners[members[index]] == 0)\r\n                remains[uint(uint8((++i)))] = members[index];\r\n\r\n        if (i == 0) {\r\n            // this is the last winner\r\n            weHaveAWinner(remains[0]);\r\n            isFundActive = false;\r\n        } else if (i > 0) {\r\n            //we need more round\r\n            uint8 winnerIndex;\r\n            winnerIndex = chooseRandom(uint8(i));\r\n            weHaveAWinner(members[winnerIndex]);\r\n            round++;\r\n        } else revert(\"Something bad is happened!\");\r\n    }\r\n\r\n    function returnFundBalance() public view OwnerOnly returns (uint) {\r\n        return fundBalance;\r\n    }\r\n\r\n    modifier OwnerOnly() {\r\n        require(msg.sender == owner, \"Sender not authorized\");\r\n        _;\r\n    }\r\n\r\n    function findMember(address _address) private view returns (bool) {\r\n        for (uint8 i = 0; i < members.length; i++) {\r\n            if (members[i] == _address) {\r\n                return true;\r\n            }\r\n        }\r\n        return false;\r\n    }\r\n\r\n    function isAllPaidInRound() private view returns (bool) {\r\n        for (uint8 i = 0; i < members.length; i++)\r\n            if (paidShares[members[i]][round - 1] == false) return false;\r\n        return true;\r\n    }\r\n\r\n    function chooseRandom(uint8 _count) private view returns (uint8) {\r\n        return uint8((block.prevrandao + block.timestamp) % _count);\r\n    }\r\n\r\n    function weHaveAWinner(address payable _winner) private {\r\n        winners[_winner] = round;\r\n        _winner.transfer(fundBalance);\r\n        fundBalance = 0;\r\n    }\r\n}\r\n",
  "sourcePath": "D:\\Sources\\SampleProjects\\FamilyFund\\contracts\\FamilyFund.sol",
  "compiler": {
    "name": "solc",
    "version": "0.8.19+commit.7dd6d404.Emscripten.clang"
  },
  "schemaVersion": "3.4.13",
  "updatedAt": "2023-05-26T18:33:55.160Z",
  "networkType": "ethereum",
  "devdoc": {
    "kind": "dev",
    "methods": {},
    "version": 1
  },
  "userdoc": {
    "kind": "user",
    "methods": {},
    "version": 1
  }
}